{
  "contractName": "FlipCoin",
  "abi": [
    {
      "constant": true,
      "inputs": [],
      "name": "owner",
      "outputs": [
        {
          "name": "",
          "type": "address"
        }
      ],
      "payable": false,
      "stateMutability": "view",
      "type": "function"
    },
    {
      "inputs": [],
      "payable": false,
      "stateMutability": "nonpayable",
      "type": "constructor"
    },
    {
      "anonymous": false,
      "inputs": [
        {
          "indexed": true,
          "name": "player",
          "type": "address"
        }
      ],
      "name": "LogNewProbableQuery",
      "type": "event"
    },
    {
      "anonymous": false,
      "inputs": [
        {
          "indexed": true,
          "name": "random_Number",
          "type": "uint256"
        }
      ],
      "name": "generatedRandomNumber",
      "type": "event"
    },
    {
      "anonymous": false,
      "inputs": [
        {
          "indexed": true,
          "name": "player",
          "type": "address"
        },
        {
          "indexed": false,
          "name": "amount",
          "type": "uint256"
        },
        {
          "indexed": true,
          "name": "result",
          "type": "bool"
        }
      ],
      "name": "betResult",
      "type": "event"
    },
    {
      "anonymous": false,
      "inputs": [
        {
          "indexed": true,
          "name": "owner",
          "type": "address"
        },
        {
          "indexed": true,
          "name": "amount",
          "type": "uint256"
        }
      ],
      "name": "contractFunded",
      "type": "event"
    },
    {
      "anonymous": false,
      "inputs": [
        {
          "indexed": true,
          "name": "player",
          "type": "address"
        },
        {
          "indexed": true,
          "name": "amount",
          "type": "uint256"
        }
      ],
      "name": "playerWithdraw",
      "type": "event"
    },
    {
      "anonymous": false,
      "inputs": [
        {
          "indexed": true,
          "name": "owner",
          "type": "address"
        },
        {
          "indexed": true,
          "name": "amount",
          "type": "uint256"
        }
      ],
      "name": "contractWithdraw",
      "type": "event"
    },
    {
      "anonymous": false,
      "inputs": [
        {
          "indexed": true,
          "name": "Id",
          "type": "bytes32"
        }
      ],
      "name": "proofVerificationFail",
      "type": "event"
    },
    {
      "constant": false,
      "inputs": [],
      "name": "createBet",
      "outputs": [],
      "payable": true,
      "stateMutability": "payable",
      "type": "function"
    },
    {
      "constant": false,
      "inputs": [
        {
          "name": "_myid",
          "type": "bytes32"
        },
        {
          "name": "_result",
          "type": "string"
        }
      ],
      "name": "__callback",
      "outputs": [],
      "payable": false,
      "stateMutability": "nonpayable",
      "type": "function"
    },
    {
      "constant": false,
      "inputs": [
        {
          "name": "_queryId",
          "type": "bytes32"
        },
        {
          "name": "_result",
          "type": "string"
        },
        {
          "name": "_proof",
          "type": "bytes"
        }
      ],
      "name": "__callback",
      "outputs": [],
      "payable": false,
      "stateMutability": "nonpayable",
      "type": "function"
    },
    {
      "constant": false,
      "inputs": [],
      "name": "depositFunds",
      "outputs": [
        {
          "name": "",
          "type": "uint256"
        }
      ],
      "payable": true,
      "stateMutability": "payable",
      "type": "function"
    },
    {
      "constant": true,
      "inputs": [],
      "name": "getContractBalance",
      "outputs": [
        {
          "name": "",
          "type": "uint256"
        }
      ],
      "payable": false,
      "stateMutability": "view",
      "type": "function"
    },
    {
      "constant": true,
      "inputs": [],
      "name": "getPlayer",
      "outputs": [
        {
          "name": "",
          "type": "address"
        }
      ],
      "payable": false,
      "stateMutability": "view",
      "type": "function"
    },
    {
      "constant": true,
      "inputs": [],
      "name": "getPlayerBalance",
      "outputs": [
        {
          "name": "",
          "type": "uint256"
        }
      ],
      "payable": false,
      "stateMutability": "view",
      "type": "function"
    },
    {
      "constant": false,
      "inputs": [],
      "name": "withdrawAllAvailable",
      "outputs": [
        {
          "name": "",
          "type": "uint256"
        }
      ],
      "payable": false,
      "stateMutability": "nonpayable",
      "type": "function"
    },
    {
      "constant": false,
      "inputs": [],
      "name": "payoutPlayer",
      "outputs": [],
      "payable": false,
      "stateMutability": "nonpayable",
      "type": "function"
    }
  ],
  "bytecode": "0x60806040523480156200001157600080fd5b50336000806101000a81548173ffffffffffffffffffffffffffffffffffffffff021916908373ffffffffffffffffffffffffffffffffffffffff16021790555066038d7ea4c6800060068190555062000075603060f81b6200007b60201b60201c565b62000a9f565b600073ffffffffffffffffffffffffffffffffffffffff16600260009054906101000a900473ffffffffffffffffffffffffffffffffffffffff1673ffffffffffffffffffffffffffffffffffffffff1614806200010b5750600062000109600260009054906101000a900473ffffffffffffffffffffffffffffffffffffffff16620003e160201b60201c565b145b156200012557620001236000620003ec60201b60201c565b505b600260009054906101000a900473ffffffffffffffffffffffffffffffffffffffff1673ffffffffffffffffffffffffffffffffffffffff166338cc48316040518163ffffffff1660e01b8152600401602060405180830381600087803b1580156200019057600080fd5b505af1158015620001a5573d6000803e3d6000fd5b505050506040513d6020811015620001bc57600080fd5b810190808051906020019092919050505073ffffffffffffffffffffffffffffffffffffffff16600160009054906101000a900473ffffffffffffffffffffffffffffffffffffffff1673ffffffffffffffffffffffffffffffffffffffff16146200030b57600260009054906101000a900473ffffffffffffffffffffffffffffffffffffffff1673ffffffffffffffffffffffffffffffffffffffff166338cc48316040518163ffffffff1660e01b8152600401602060405180830381600087803b1580156200028d57600080fd5b505af1158015620002a2573d6000803e3d6000fd5b505050506040513d6020811015620002b957600080fd5b8101908080519060200190929190505050600160006101000a81548173ffffffffffffffffffffffffffffffffffffffff021916908373ffffffffffffffffffffffffffffffffffffffff1602179055505b600160009054906101000a900473ffffffffffffffffffffffffffffffffffffffff1673ffffffffffffffffffffffffffffffffffffffff1663688dcfd7826040518263ffffffff1660e01b815260040180827effffffffffffffffffffffffffffffffffffffffffffffffffffffffffffff19167effffffffffffffffffffffffffffffffffffffffffffffffffffffffffffff19168152602001915050600060405180830381600087803b158015620003c557600080fd5b505af1158015620003da573d6000803e3d6000fd5b5050505050565b6000813b9050919050565b6000620003fe6200040560201b60201c565b9050919050565b6000806200042d731d3b2638a7cc9f2cb3d298a3da7a90b67e5506ed620003e160201b60201c565b1115620004d957731d3b2638a7cc9f2cb3d298a3da7a90b67e5506ed600260006101000a81548173ffffffffffffffffffffffffffffffffffffffff021916908373ffffffffffffffffffffffffffffffffffffffff160217905550620004cf6040518060400160405280600b81526020017f6574685f6d61696e6e6574000000000000000000000000000000000000000000815250620009d460201b60201c565b60019050620009d1565b60006200050073c03a2615d5efaf5f49f60b7bb6583eaec212fdf1620003e160201b60201c565b1115620005ac5773c03a2615d5efaf5f49f60b7bb6583eaec212fdf1600260006101000a81548173ffffffffffffffffffffffffffffffffffffffff021916908373ffffffffffffffffffffffffffffffffffffffff160217905550620005a26040518060400160405280600c81526020017f6574685f726f707374656e330000000000000000000000000000000000000000815250620009d460201b60201c565b60019050620009d1565b6000620005d373b7a07bcf2ba2f2703b24c0691b5278999c59ac7e620003e160201b60201c565b11156200067f5773b7a07bcf2ba2f2703b24c0691b5278999c59ac7e600260006101000a81548173ffffffffffffffffffffffffffffffffffffffff021916908373ffffffffffffffffffffffffffffffffffffffff160217905550620006756040518060400160405280600981526020017f6574685f6b6f76616e0000000000000000000000000000000000000000000000815250620009d460201b60201c565b60019050620009d1565b6000620006a673146500cfd35b22e4a392fe0adc06de1a1368ed48620003e160201b60201c565b1115620007525773146500cfd35b22e4a392fe0adc06de1a1368ed48600260006101000a81548173ffffffffffffffffffffffffffffffffffffffff021916908373ffffffffffffffffffffffffffffffffffffffff160217905550620007486040518060400160405280600b81526020017f6574685f72696e6b656279000000000000000000000000000000000000000000815250620009d460201b60201c565b60019050620009d1565b60006200077973a2998efd205fb9d4b4963afb70778d6354ad3a41620003e160201b60201c565b1115620008255773a2998efd205fb9d4b4963afb70778d6354ad3a41600260006101000a81548173ffffffffffffffffffffffffffffffffffffffff021916908373ffffffffffffffffffffffffffffffffffffffff1602179055506200081b6040518060400160405280600a81526020017f6574685f676f65726c6900000000000000000000000000000000000000000000815250620009d460201b60201c565b60019050620009d1565b60006200084c736f485c8bf6fc43ea212e93bbf8ce046c7f1cb475620003e160201b60201c565b1115620008b257736f485c8bf6fc43ea212e93bbf8ce046c7f1cb475600260006101000a81548173ffffffffffffffffffffffffffffffffffffffff021916908373ffffffffffffffffffffffffffffffffffffffff16021790555060019050620009d1565b6000620008d97320e12a1f859b3feae5fb2a0a32c18f5a65555bbf620003e160201b60201c565b11156200093f577320e12a1f859b3feae5fb2a0a32c18f5a65555bbf600260006101000a81548173ffffffffffffffffffffffffffffffffffffffff021916908373ffffffffffffffffffffffffffffffffffffffff16021790555060019050620009d1565b6000620009667351efaf4c8b3c9afbd5ab9f4bbc82784ab6ef8faa620003e160201b60201c565b1115620009cc577351efaf4c8b3c9afbd5ab9f4bbc82784ab6ef8faa600260006101000a81548173ffffffffffffffffffffffffffffffffffffffff021916908373ffffffffffffffffffffffffffffffffffffffff16021790555060019050620009d1565b600090505b90565b8060039080519060200190620009ec929190620009f0565b5050565b828054600181600116156101000203166002900490600052602060002090601f016020900481019282601f1062000a3357805160ff191683800117855562000a64565b8280016001018555821562000a64579182015b8281111562000a6357825182559160200191906001019062000a46565b5b50905062000a73919062000a77565b5090565b62000a9c91905b8082111562000a9857600081600090555060010162000a7e565b5090565b90565b6147618062000aaf6000396000f3fe6080604052600436106100915760003560e01c80638da5cb5b116100595780638da5cb5b1461037e578063a6440fe2146103d5578063dcb7914014610400578063dec9ba4414610417578063e2c41dbc1461042157610091565b80630b01517c1461009657806327dc297e146100c15780633308f42d1461019357806338bbfa50146101ea5780636f9fb98a14610353575b600080fd5b3480156100a257600080fd5b506100ab61043f565b6040518082815260200191505060405180910390f35b3480156100cd57600080fd5b50610191600480360360408110156100e457600080fd5b81019080803590602001909291908035906020019064010000000081111561010b57600080fd5b82018360208201111561011d57600080fd5b8035906020019184600183028401116401000000008311171561013f57600080fd5b91908080601f016020809104026020016040519081016040528093929190818152602001838380828437600081840152601f19601f820116905080830192505050505050509192919290505050610486565b005b34801561019f57600080fd5b506101a86104c9565b604051808273ffffffffffffffffffffffffffffffffffffffff1673ffffffffffffffffffffffffffffffffffffffff16815260200191505060405180910390f35b3480156101f657600080fd5b506103516004803603606081101561020d57600080fd5b81019080803590602001909291908035906020019064010000000081111561023457600080fd5b82018360208201111561024657600080fd5b8035906020019184600183028401116401000000008311171561026857600080fd5b91908080601f016020809104026020016040519081016040528093929190818152602001838380828437600081840152601f19601f820116905080830192505050505050509192919290803590602001906401000000008111156102cb57600080fd5b8201836020820111156102dd57600080fd5b803590602001918460018302840111640100000000831117156102ff57600080fd5b91908080601f016020809104026020016040519081016040528093929190818152602001838380828437600081840152601f19601f8201169050808301925050505050505091929192905050506104d6565b005b34801561035f57600080fd5b506103686108f0565b6040518082815260200191505060405180910390f35b34801561038a57600080fd5b506103936108fa565b604051808273ffffffffffffffffffffffffffffffffffffffff1673ffffffffffffffffffffffffffffffffffffffff16815260200191505060405180910390f35b3480156103e157600080fd5b506103ea61091f565b6040518082815260200191505060405180910390f35b34801561040c57600080fd5b50610415610a76565b005b61041f610be6565b005b610429610efd565b6040518082815260200191505060405180910390f35b6000600b60003373ffffffffffffffffffffffffffffffffffffffff1673ffffffffffffffffffffffffffffffffffffffff16815260200190815260200160002054905090565b6104c5828260006040519080825280601f01601f1916602001820160405280156104bf5781602001600182028038833980820191505090505b506104d6565b5050565b6000803390508091505090565b6104de610fbf565b73ffffffffffffffffffffffffffffffffffffffff163373ffffffffffffffffffffffffffffffffffffffff161461051557600080fd5b60006105228484846112df565b60ff1614156108bd5760006002836040516020018082805190602001908083835b602083106105665780518252602082019150602081019050602083039250610543565b6001836020036101000a0380198251168184511680821785525050505050509050019150506040516020818303038152906040528051906020012060001c816105ab57fe5b069050807fc13d60fe9dffdb6908d2d446cd18134373a51db0738ee04f296eeb9128121cbc60405160405180910390a26000600a600086815260200190815260200160002060010160009054906101000a900473ffffffffffffffffffffffffffffffffffffffff1690506000600a60008781526020019081526020016000206002015490506000600a600088815260200190815260200160002060030154905060006106748261066660028661140f90919063ffffffff16565b61149590919063ffffffff16565b9050600085141561076b576106d181600b60008773ffffffffffffffffffffffffffffffffffffffff1673ffffffffffffffffffffffffffffffffffffffff168152602001908152602001600020546114df90919063ffffffff16565b600b60008673ffffffffffffffffffffffffffffffffffffffff1673ffffffffffffffffffffffffffffffffffffffff16815260200190815260200160002081905550600115158473ffffffffffffffffffffffffffffffffffffffff167f0225d8feb385242f442c203c6050dada47778ecdc263014b186cf756575b6fe8836040518082815260200191505060405180910390a36107d9565b610780816007546114df90919063ffffffff16565b600781905550600015158473ffffffffffffffffffffffffffffffffffffffff167f0225d8feb385242f442c203c6050dada47778ecdc263014b186cf756575b6fe8856040518082815260200191505060405180910390a35b600960008573ffffffffffffffffffffffffffffffffffffffff1673ffffffffffffffffffffffffffffffffffffffff168152602001908152602001600020600080820160006101000a81549073ffffffffffffffffffffffffffffffffffffffff021916905560018201600090556002820160006101000a81549060ff02191690555050600a60008981526020019081526020016000206000808201600090556001820160006101000a81549073ffffffffffffffffffffffffffffffffffffffff021916905560028201600090556003820160009055505050505050506108eb565b827f3487e280549f8291b0d7925045c609dc53762d600795125c19f7870b32f2991860405160405180910390a25b505050565b6000600754905090565b6000809054906101000a900473ffffffffffffffffffffffffffffffffffffffff1681565b60008060009054906101000a900473ffffffffffffffffffffffffffffffffffffffff1673ffffffffffffffffffffffffffffffffffffffff163373ffffffffffffffffffffffffffffffffffffffff161461097a57600080fd5b60006007549050600081116109da576040517f08c379a000000000000000000000000000000000000000000000000000000000815260040180806020018281038252603781526020018061468c6037913960400191505060405180910390fd5b60006007819055503373ffffffffffffffffffffffffffffffffffffffff166108fc829081150290604051600060405180830381858888f19350505050158015610a28573d6000803e3d6000fd5b50803373ffffffffffffffffffffffffffffffffffffffff167f82f1f08d0d9b1d46df8a71ee7b7b995dd44e25e019fc31fb42f88451d0ad5c7460405160405180910390a360075491505090565b6000600b60003373ffffffffffffffffffffffffffffffffffffffff1673ffffffffffffffffffffffffffffffffffffffff16815260200190815260200160002054905060008111610b13576040517f08c379a00000000000000000000000000000000000000000000000000000000081526004018080602001828103825260338152602001806147036033913960400191505060405180910390fd5b6000600b60003373ffffffffffffffffffffffffffffffffffffffff1673ffffffffffffffffffffffffffffffffffffffff168152602001908152602001600020819055503373ffffffffffffffffffffffffffffffffffffffff166108fc829081150290604051600060405180830381858888f19350505050158015610b9e573d6000803e3d6000fd5b50803373ffffffffffffffffffffffffffffffffffffffff167f7804b809b0affd82f31b74be3ae3f91788a1016375791008c346590f19029b2c60405160405180910390a350565b60001515600960003373ffffffffffffffffffffffffffffffffffffffff1673ffffffffffffffffffffffffffffffffffffffff16815260200190815260200160002060020160009054906101000a900460ff16151514610caf576040517f08c379a00000000000000000000000000000000000000000000000000000000081526004018080602001828103825260128152602001807f42657420616c726561647920706c61636564000000000000000000000000000081525060200191505060405180910390fd5b600654341015610d0a576040517f08c379a00000000000000000000000000000000000000000000000000000000081526004018080602001828103825260258152602001806146116025913960400191505060405180910390fd5b346007541015610d65576040517f08c379a00000000000000000000000000000000000000000000000000000000081526004018080602001828103825260358152602001806146366035913960400191505060405180910390fd5b610d6d6144b0565b60405180606001604052803373ffffffffffffffffffffffffffffffffffffffff168152602001348152602001600115158152509050610dac81611567565b6000809050600062030d409050610dc582600183611624565b600881905550610dd36144e9565b604051806080016040528060085481526020013373ffffffffffffffffffffffffffffffffffffffff168152602001348152602001610e466040518060400160405280600681526020017f52616e646f6d0000000000000000000000000000000000000000000000000000815250611bbf565b8152509050610e5781600854611f53565b610eae600960003373ffffffffffffffffffffffffffffffffffffffff1673ffffffffffffffffffffffffffffffffffffffff1681526020019081526020016000206001015460075461149590919063ffffffff16565b6007819055503373ffffffffffffffffffffffffffffffffffffffff167f54326a19ad33dcb517664f092a1c96c5d837016c71b21230522d93b33df83c2d60405160405180910390a250505050565b60008060009054906101000a900473ffffffffffffffffffffffffffffffffffffffff1673ffffffffffffffffffffffffffffffffffffffff163373ffffffffffffffffffffffffffffffffffffffff1614610f5857600080fd5b610f6d346007546114df90919063ffffffff16565b600781905550343373ffffffffffffffffffffffffffffffffffffffff167fff043843182fec3fbcbc695545b7652d340a2cf0919615adb04d98a00e7de8e260405160405180910390a3600754905090565b60008073ffffffffffffffffffffffffffffffffffffffff16600260009054906101000a900473ffffffffffffffffffffffffffffffffffffffff1673ffffffffffffffffffffffffffffffffffffffff16148061104757506000611045600260009054906101000a900473ffffffffffffffffffffffffffffffffffffffff16611fd3565b145b15611058576110566000611fde565b505b600260009054906101000a900473ffffffffffffffffffffffffffffffffffffffff1673ffffffffffffffffffffffffffffffffffffffff166338cc48316040518163ffffffff1660e01b8152600401602060405180830381600087803b1580156110c257600080fd5b505af11580156110d6573d6000803e3d6000fd5b505050506040513d60208110156110ec57600080fd5b810190808051906020019092919050505073ffffffffffffffffffffffffffffffffffffffff16600160009054906101000a900473ffffffffffffffffffffffffffffffffffffffff1673ffffffffffffffffffffffffffffffffffffffff161461123757600260009054906101000a900473ffffffffffffffffffffffffffffffffffffffff1673ffffffffffffffffffffffffffffffffffffffff166338cc48316040518163ffffffff1660e01b8152600401602060405180830381600087803b1580156111bb57600080fd5b505af11580156111cf573d6000803e3d6000fd5b505050506040513d60208110156111e557600080fd5b8101908080519060200190929190505050600160006101000a81548173ffffffffffffffffffffffffffffffffffffffff021916908373ffffffffffffffffffffffffffffffffffffffff1602179055505b600160009054906101000a900473ffffffffffffffffffffffffffffffffffffffff1673ffffffffffffffffffffffffffffffffffffffff1663c281d19e6040518163ffffffff1660e01b815260040160206040518083038186803b15801561129f57600080fd5b505afa1580156112b3573d6000803e3d6000fd5b505050506040513d60208110156112c957600080fd5b8101908080519060200190929190505050905090565b60007f4c000000000000000000000000000000000000000000000000000000000000008260008151811061130f57fe5b602001015160f81c60f81b7effffffffffffffffffffffffffffffffffffffffffffffffffffffffffffff19161415806113a257507f50000000000000000000000000000000000000000000000000000000000000008260018151811061137257fe5b602001015160f81c60f81b7effffffffffffffffffffffffffffffffffffffffffffffffffffffffffffff191614155b806113ce5750600160ff16826002815181106113ba57fe5b602001015160f81c60f81b60f81c60ff1614155b156113dc5760019050611408565b60006113f18386866113ec611fef565b612091565b905080611402576002915050611408565b60009150505b9392505050565b600080831415611422576000905061148f565b600082840290508284828161143357fe5b041461148a576040517f08c379a000000000000000000000000000000000000000000000000000000000815260040180806020018281038252602181526020018061466b6021913960400191505060405180910390fd5b809150505b92915050565b60006114d783836040518060400160405280601e81526020017f536166654d6174683a207375627472616374696f6e206f766572666c6f77000081525061273c565b905092915050565b60008082840190508381101561155d576040517f08c379a000000000000000000000000000000000000000000000000000000000815260040180806020018281038252601b8152602001807f536166654d6174683a206164646974696f6e206f766572666c6f77000000000081525060200191505060405180910390fd5b8091505092915050565b600033905081600960008373ffffffffffffffffffffffffffffffffffffffff1673ffffffffffffffffffffffffffffffffffffffff16815260200190815260200160002060008201518160000160006101000a81548173ffffffffffffffffffffffffffffffffffffffff021916908373ffffffffffffffffffffffffffffffffffffffff1602179055506020820151816001015560408201518160020160006101000a81548160ff0219169083151502179055509050505050565b60008083118015611636575060208311155b61163f57600080fd5b600a84029350606060016040519080825280601f01601f19166020018201604052801561167b5781602001600182028038833980820191505090505b5090508360f81b8160008151811061168f57fe5b60200101907effffffffffffffffffffffffffffffffffffffffffffffffffffffffffffff1916908160001a905350606060206040519080825280601f01601f1916602001820160405280156116f45781602001600182028038833980820191505090505b509050606060206040519080825280601f01601f19166020018201604052801561172d5781602001600182028038833980820191505090505b509050600061173a6127fc565b905060208352424118600143034018602084015260208252806020830152606060206040519080825280601f01601f19166020018201604052801561178e5781602001600182028038833980820191505090505b509050886020820152606060086040519080825280601f01601f1916602001820160405280156117cd5781602001600182028038833980820191505090505b5090506117e08260186008846000612b1c565b506117e961452a565b6040518060800160405280878152602001888152602001868152602001848152509050600061184e6040518060400160405280600681526020017f72616e646f6d0000000000000000000000000000000000000000000000000000815250838c612b7b565b9050606060086040519080825280601f01601f1916602001820160405280156118865781602001600182028038833980820191505090505b50905060208401517f0100000000000000000000000000000000000000000000000000000000000000810460278301537e01000000000000000000000000000000000000000000000000000000000000810460268301537d010000000000000000000000000000000000000000000000000000000000810460258301537c0100000000000000000000000000000000000000000000000000000000810460248301537b01000000000000000000000000000000000000000000000000000000810460238301537a010000000000000000000000000000000000000000000000000000810460228301537901000000000000000000000000000000000000000000000000008104602183015378010000000000000000000000000000000000000000000000008104602083015350611bac8282856001600481106119c557fe5b60200201516002876000600481106119d957fe5b60200201516040518082805190602001908083835b60208310611a1157805182526020820191506020810190506020830392506119ee565b6001836020036101000a038019825116818451168082178552505050505050905001915050602060405180830381855afa158015611a53573d6000803e3d6000fd5b5050506040513d6020811015611a6857600080fd5b810190808051906020019092919050505087600260048110611a8657fe5b60200201516040516020018085805190602001908083835b60208310611ac15780518252602082019150602081019050602083039250611a9e565b6001836020036101000a03801982511681845116808217855250505050505090500184805190602001908083835b60208310611b125780518252602082019150602081019050602083039250611aef565b6001836020036101000a03801982511681845116808217855250505050505090500183815260200182805190602001908083835b60208310611b695780518252602082019150602081019050602083039250611b46565b6001836020036101000a03801982511681845116808217855250505050505090500194505050505060405160208183030381529060405280519060200120612eea565b8199505050505050505050509392505050565b60008073ffffffffffffffffffffffffffffffffffffffff16600260009054906101000a900473ffffffffffffffffffffffffffffffffffffffff1673ffffffffffffffffffffffffffffffffffffffff161480611c4757506000611c45600260009054906101000a900473ffffffffffffffffffffffffffffffffffffffff16611fd3565b145b15611c5857611c566000611fde565b505b600260009054906101000a900473ffffffffffffffffffffffffffffffffffffffff1673ffffffffffffffffffffffffffffffffffffffff166338cc48316040518163ffffffff1660e01b8152600401602060405180830381600087803b158015611cc257600080fd5b505af1158015611cd6573d6000803e3d6000fd5b505050506040513d6020811015611cec57600080fd5b810190808051906020019092919050505073ffffffffffffffffffffffffffffffffffffffff16600160009054906101000a900473ffffffffffffffffffffffffffffffffffffffff1673ffffffffffffffffffffffffffffffffffffffff1614611e3757600260009054906101000a900473ffffffffffffffffffffffffffffffffffffffff1673ffffffffffffffffffffffffffffffffffffffff166338cc48316040518163ffffffff1660e01b8152600401602060405180830381600087803b158015611dbb57600080fd5b505af1158015611dcf573d6000803e3d6000fd5b505050506040513d6020811015611de557600080fd5b8101908080519060200190929190505050600160006101000a81548173ffffffffffffffffffffffffffffffffffffffff021916908373ffffffffffffffffffffffffffffffffffffffff1602179055505b600160009054906101000a900473ffffffffffffffffffffffffffffffffffffffff1673ffffffffffffffffffffffffffffffffffffffff1663524f3889836040518263ffffffff1660e01b81526004018080602001828103825283818151815260200191508051906020019080838360005b83811015611ec5578082015181840152602081019050611eaa565b50505050905090810190601f168015611ef25780820380516001836020036101000a031916815260200191505b5092505050602060405180830381600087803b158015611f1157600080fd5b505af1158015611f25573d6000803e3d6000fd5b505050506040513d6020811015611f3b57600080fd5b81019080805190602001909291905050509050919050565b81600a60008381526020019081526020016000206000820151816000015560208201518160010160006101000a81548173ffffffffffffffffffffffffffffffffffffffff021916908373ffffffffffffffffffffffffffffffffffffffff16021790555060408201518160020155606082015181600301559050505050565b6000813b9050919050565b6000611fe8612f06565b9050919050565b606060038054600181600116156101000203166002900480601f0160208091040260200160405190810160405280929190818152602001828054600181600116156101000203166002900480156120875780601f1061205c57610100808354040283529160200191612087565b820191906000526020600020905b81548152906001019060200180831161206a57829003601f168201915b5050505050905090565b60008060206002876045815181106120a557fe5b602001015160f81c60f81b60f81c60ff1601604401019050606060206040519080825280601f01601f1916602001820160405280156120f35781602001600182028038833980820191505090505b50905061210587836020846000612b1c565b50600284876040516020018083805190602001908083835b60208310612140578051825260208201915060208101905060208303925061211d565b6001836020036101000a038019825116818451168082178552505050505050905001828152602001925050506040516020818303038152906040526040518082805190602001908083835b602083106121ae578051825260208201915060208101905060208303925061218b565b6001836020036101000a038019825116818451168082178552505050505050905001915050602060405180830381855afa1580156121f0573d6000803e3d6000fd5b5050506040513d602081101561220557600080fd5b8101908080519060200190929190505050604051602001808281526020019150506040516020818303038152906040528051906020012081805190602001201461225457600092505050612734565b6060600288600160498601018151811061226a57fe5b602001015160f81c60f81b60f81c60ff16016040519080825280601f01601f1916602001820160405280156122ae5781602001600182028038833980820191505090505b5090506122c388604985018351846000612b1c565b5061238e6002826040518082805190602001908083835b602083106122fd57805182526020820191506020810190506020830392506122da565b6001836020036101000a038019825116818451168082178552505050505050905001915050602060405180830381855afa15801561233f573d6000803e3d6000fd5b5050506040513d602081101561235457600080fd5b8101908080519060200190929190505050878a600860208801018151811061237857fe5b602001015160f81c60f81b60f81c60ff1661345d565b61239e5760009350505050612734565b606060296040519080825280601f01601f1916602001820160405280156123d45781602001600182028038833980820191505090505b5090506123e989602086016029846000612b1c565b506060604080519080825280601f01601f19166020018201604052801561241f5781602001600182028038833980820191505090505b50905060006041845160296020890101010190506124458b604083036040856000612b1c565b5060006002836040518082805190602001908083835b6020831061247e578051825260208201915060208101905060208303925061245b565b6001836020036101000a038019825116818451168082178552505050505050905001915050602060405180830381855afa1580156124c0573d6000803e3d6000fd5b5050506040513d60208110156124d557600080fd5b8101908080519060200190929190505050905083816040516020018083805190602001908083835b6020831061252057805182526020820191506020810190506020830392506124fd565b6001836020036101000a0380198251168184511680821785525050505050509050018281526020019250505060405160208183030381529060405280519060200120600460008d815260200190815260200160002054141561259857600460008c8152602001908152602001600020600090556125a8565b6000975050505050505050612734565b606060496040519080825280601f01601f1916602001820160405280156125de5781602001600182028038833980820191505090505b5090506125f08d896049846000612b1c565b506126996002826040518082805190602001908083835b6020831061262a5780518252602082019150602081019050602083039250612607565b6001836020036101000a038019825116818451168082178552505050505050905001915050602060405180830381855afa15801561266c573d6000803e3d6000fd5b5050506040513d602081101561268157600080fd5b8101908080519060200190929190505050878661350d565b6126ae57600098505050505050505050612734565b6005600083815260200190815260200160002060009054906101000a900460ff16612708576126dd8d846136cb565b6005600084815260200190815260200160002060006101000a81548160ff0219169083151502179055505b6005600083815260200190815260200160002060009054906101000a900460ff16985050505050505050505b949350505050565b60008383111582906127e9576040517f08c379a00000000000000000000000000000000000000000000000000000000081526004018080602001828103825283818151815260200191508051906020019080838360005b838110156127ae578082015181840152602081019050612793565b50505050905090810190601f1680156127db5780820380516001836020036101000a031916815260200191505b509250505060405180910390fd5b5060008385039050809150509392505050565b60008073ffffffffffffffffffffffffffffffffffffffff16600260009054906101000a900473ffffffffffffffffffffffffffffffffffffffff1673ffffffffffffffffffffffffffffffffffffffff16148061288457506000612882600260009054906101000a900473ffffffffffffffffffffffffffffffffffffffff16611fd3565b145b15612895576128936000611fde565b505b600260009054906101000a900473ffffffffffffffffffffffffffffffffffffffff1673ffffffffffffffffffffffffffffffffffffffff166338cc48316040518163ffffffff1660e01b8152600401602060405180830381600087803b1580156128ff57600080fd5b505af1158015612913573d6000803e3d6000fd5b505050506040513d602081101561292957600080fd5b810190808051906020019092919050505073ffffffffffffffffffffffffffffffffffffffff16600160009054906101000a900473ffffffffffffffffffffffffffffffffffffffff1673ffffffffffffffffffffffffffffffffffffffff1614612a7457600260009054906101000a900473ffffffffffffffffffffffffffffffffffffffff1673ffffffffffffffffffffffffffffffffffffffff166338cc48316040518163ffffffff1660e01b8152600401602060405180830381600087803b1580156129f857600080fd5b505af1158015612a0c573d6000803e3d6000fd5b505050506040513d6020811015612a2257600080fd5b8101908080519060200190929190505050600160006101000a81548173ffffffffffffffffffffffffffffffffffffffff021916908373ffffffffffffffffffffffffffffffffffffffff1602179055505b600160009054906101000a900473ffffffffffffffffffffffffffffffffffffffff1673ffffffffffffffffffffffffffffffffffffffff1663abaa5f3e6040518163ffffffff1660e01b815260040160206040518083038186803b158015612adc57600080fd5b505afa158015612af0573d6000803e3d6000fd5b505050506040513d6020811015612b0657600080fd5b8101908080519060200190929190505050905090565b6060600082850190508084511015612b3357600080fd5b600086602001905060008460200190505b868860200101821015612b6c5781890151808288015250602082019150602081019050612b44565b85935050505095945050505050565b60008073ffffffffffffffffffffffffffffffffffffffff16600260009054906101000a900473ffffffffffffffffffffffffffffffffffffffff1673ffffffffffffffffffffffffffffffffffffffff161480612c0357506000612c01600260009054906101000a900473ffffffffffffffffffffffffffffffffffffffff16611fd3565b145b15612c1457612c126000611fde565b505b600260009054906101000a900473ffffffffffffffffffffffffffffffffffffffff1673ffffffffffffffffffffffffffffffffffffffff166338cc48316040518163ffffffff1660e01b8152600401602060405180830381600087803b158015612c7e57600080fd5b505af1158015612c92573d6000803e3d6000fd5b505050506040513d6020811015612ca857600080fd5b810190808051906020019092919050505073ffffffffffffffffffffffffffffffffffffffff16600160009054906101000a900473ffffffffffffffffffffffffffffffffffffffff1673ffffffffffffffffffffffffffffffffffffffff1614612df357600260009054906101000a900473ffffffffffffffffffffffffffffffffffffffff1673ffffffffffffffffffffffffffffffffffffffff166338cc48316040518163ffffffff1660e01b8152600401602060405180830381600087803b158015612d7757600080fd5b505af1158015612d8b573d6000803e3d6000fd5b505050506040513d6020811015612da157600080fd5b8101908080519060200190929190505050600160006101000a81548173ffffffffffffffffffffffffffffffffffffffff021916908373ffffffffffffffffffffffffffffffffffffffff1602179055505b60606004604051908082528060200260200182016040528015612e2a57816020015b6060815260200190600190039081612e155790505b50905083600060048110612e3a57fe5b602002015181600081518110612e4c57fe5b602002602001018190525083600160048110612e6457fe5b602002015181600181518110612e7657fe5b602002602001018190525083600260048110612e8e57fe5b602002015181600281518110612ea057fe5b602002602001018190525083600360048110612eb857fe5b602002015181600381518110612eca57fe5b6020026020010181905250612ee0858285613ae3565b9150509392505050565b8060046000848152602001908152602001600020819055505050565b600080612f26731d3b2638a7cc9f2cb3d298a3da7a90b67e5506ed611fd3565b1115612fc857731d3b2638a7cc9f2cb3d298a3da7a90b67e5506ed600260006101000a81548173ffffffffffffffffffffffffffffffffffffffff021916908373ffffffffffffffffffffffffffffffffffffffff160217905550612fbf6040518060400160405280600b81526020017f6574685f6d61696e6e6574000000000000000000000000000000000000000000815250614049565b6001905061345a565b6000612fe773c03a2615d5efaf5f49f60b7bb6583eaec212fdf1611fd3565b11156130895773c03a2615d5efaf5f49f60b7bb6583eaec212fdf1600260006101000a81548173ffffffffffffffffffffffffffffffffffffffff021916908373ffffffffffffffffffffffffffffffffffffffff1602179055506130806040518060400160405280600c81526020017f6574685f726f707374656e330000000000000000000000000000000000000000815250614049565b6001905061345a565b60006130a873b7a07bcf2ba2f2703b24c0691b5278999c59ac7e611fd3565b111561314a5773b7a07bcf2ba2f2703b24c0691b5278999c59ac7e600260006101000a81548173ffffffffffffffffffffffffffffffffffffffff021916908373ffffffffffffffffffffffffffffffffffffffff1602179055506131416040518060400160405280600981526020017f6574685f6b6f76616e0000000000000000000000000000000000000000000000815250614049565b6001905061345a565b600061316973146500cfd35b22e4a392fe0adc06de1a1368ed48611fd3565b111561320b5773146500cfd35b22e4a392fe0adc06de1a1368ed48600260006101000a81548173ffffffffffffffffffffffffffffffffffffffff021916908373ffffffffffffffffffffffffffffffffffffffff1602179055506132026040518060400160405280600b81526020017f6574685f72696e6b656279000000000000000000000000000000000000000000815250614049565b6001905061345a565b600061322a73a2998efd205fb9d4b4963afb70778d6354ad3a41611fd3565b11156132cc5773a2998efd205fb9d4b4963afb70778d6354ad3a41600260006101000a81548173ffffffffffffffffffffffffffffffffffffffff021916908373ffffffffffffffffffffffffffffffffffffffff1602179055506132c36040518060400160405280600a81526020017f6574685f676f65726c6900000000000000000000000000000000000000000000815250614049565b6001905061345a565b60006132eb736f485c8bf6fc43ea212e93bbf8ce046c7f1cb475611fd3565b111561334f57736f485c8bf6fc43ea212e93bbf8ce046c7f1cb475600260006101000a81548173ffffffffffffffffffffffffffffffffffffffff021916908373ffffffffffffffffffffffffffffffffffffffff1602179055506001905061345a565b600061336e7320e12a1f859b3feae5fb2a0a32c18f5a65555bbf611fd3565b11156133d2577320e12a1f859b3feae5fb2a0a32c18f5a65555bbf600260006101000a81548173ffffffffffffffffffffffffffffffffffffffff021916908373ffffffffffffffffffffffffffffffffffffffff1602179055506001905061345a565b60006133f17351efaf4c8b3c9afbd5ab9f4bbc82784ab6ef8faa611fd3565b1115613455577351efaf4c8b3c9afbd5ab9f4bbc82784ab6ef8faa600260006101000a81548173ffffffffffffffffffffffffffffffffffffffff021916908373ffffffffffffffffffffffffffffffffffffffff1602179055506001905061345a565b600090505b90565b600080600190508284511461347157600080fd5b60008090505b838110156135015784818151811061348b57fe5b602001015160f81c60f81b7effffffffffffffffffffffffffffffffffffffffffffffffffffffffffffff19168682602081106134c457fe5b1a60f81b7effffffffffffffffffffffffffffffffffffffffffffffffffffffffffffff1916146134f457600091505b8080600101915050613477565b50809150509392505050565b6000806000806000606060206040519080825280601f01601f19166020018201604052801561354b5781602001600182028038833980820191505090505b509050600060208960038151811061355f57fe5b602001015160f81c60f81b60f81c60ff1603600401905061358589826020856000612b1c565b9150606060206040519080825280601f01601f1916602001820160405280156135bd5781602001600182028038833980820191505090505b5090506022820191506135f98a60208c60018603815181106135db57fe5b602001015160f81c60f81b60f81c60ff160384016020846000612b1c565b905060208301519450602081015193506136168b601b8787614063565b80975081985050508573ffffffffffffffffffffffffffffffffffffffff16898051906020012060001c73ffffffffffffffffffffffffffffffffffffffff16141561366c5760019750505050505050506136c4565b6136798b601c8787614063565b80975081985050508573ffffffffffffffffffffffffffffffffffffffff16898051906020012060001c73ffffffffffffffffffffffffffffffffffffffff16149750505050505050505b9392505050565b600080606060028560018601815181106136e157fe5b602001015160f81c60f81b60f81c60ff16016040519080825280601f01601f1916602001820160405280156137255781602001600182028038833980820191505090505b50905061373785858351846000612b1c565b506060604080519080825280601f01601f19166020018201604052801561376d5781602001600182028038833980820191505090505b5090506137808660046040846000612b1c565b50606060626040519080825280601f01601f1916602001820160405280156137b75781602001600182028038833980820191505090505b509050600160f81b816000815181106137cc57fe5b60200101907effffffffffffffffffffffffffffffffffffffffffffffffffffffffffffff1916908160001a90535061380d87604188036041846001612b1c565b5060606040518060400160405280602081526020017ffd94fa71bc0ba10d39d464d0d8f465efeef0a2764e3887fcc9df41ded20f505c81525090506138588160006020856042612b1c565b506139016002836040518082805190602001908083835b60208310613892578051825260208201915060208101905060208303925061386f565b6001836020036101000a038019825116818451168082178552505050505050905001915050602060405180830381855afa1580156138d4573d6000803e3d6000fd5b5050506040513d60208110156138e957600080fd5b8101908080519060200190929190505050858561350d565b94508461391657600095505050505050613add565b60606040518060600160405280604081526020016146c3604091399050606060426040519080825280601f01601f1916602001820160405280156139695781602001600182028038833980820191505090505b50905060fe60f81b8160008151811061397e57fe5b60200101907effffffffffffffffffffffffffffffffffffffffffffffffffffffffffffff1916908160001a9053506139bd8a60036041846001612b1c565b50606060028b6045815181106139cf57fe5b602001015160f81c60f81b60f81c60ff16016040519080825280601f01601f191660200182016040528015613a135781602001600182028038833980820191505090505b509050613a268b60448351846000612b1c565b50613acf6002836040518082805190602001908083835b60208310613a605780518252602082019150602081019050602083039250613a3d565b6001836020036101000a038019825116818451168082178552505050505050905001915050602060405180830381855afa158015613aa2573d6000803e3d6000fd5b5050506040513d6020811015613ab757600080fd5b8101908080519060200190929190505050828561350d565b975087985050505050505050505b92915050565b60008073ffffffffffffffffffffffffffffffffffffffff16600260009054906101000a900473ffffffffffffffffffffffffffffffffffffffff1673ffffffffffffffffffffffffffffffffffffffff161480613b6b57506000613b69600260009054906101000a900473ffffffffffffffffffffffffffffffffffffffff16611fd3565b145b15613b7c57613b7a6000611fde565b505b600260009054906101000a900473ffffffffffffffffffffffffffffffffffffffff1673ffffffffffffffffffffffffffffffffffffffff166338cc48316040518163ffffffff1660e01b8152600401602060405180830381600087803b158015613be657600080fd5b505af1158015613bfa573d6000803e3d6000fd5b505050506040513d6020811015613c1057600080fd5b810190808051906020019092919050505073ffffffffffffffffffffffffffffffffffffffff16600160009054906101000a900473ffffffffffffffffffffffffffffffffffffffff1673ffffffffffffffffffffffffffffffffffffffff1614613d5b57600260009054906101000a900473ffffffffffffffffffffffffffffffffffffffff1673ffffffffffffffffffffffffffffffffffffffff166338cc48316040518163ffffffff1660e01b8152600401602060405180830381600087803b158015613cdf57600080fd5b505af1158015613cf3573d6000803e3d6000fd5b505050506040513d6020811015613d0957600080fd5b8101908080519060200190929190505050600160006101000a81548173ffffffffffffffffffffffffffffffffffffffff021916908373ffffffffffffffffffffffffffffffffffffffff1602179055505b6000600160009054906101000a900473ffffffffffffffffffffffffffffffffffffffff1673ffffffffffffffffffffffffffffffffffffffff16632ef3accc86856040518363ffffffff1660e01b81526004018080602001838152602001828103825284818151815260200191508051906020019080838360005b83811015613df2578082015181840152602081019050613dd7565b50505050905090810190601f168015613e1f5780820380516001836020036101000a031916815260200191505b509350505050602060405180830381600087803b158015613e3f57600080fd5b505af1158015613e53573d6000803e3d6000fd5b505050506040513d6020811015613e6957600080fd5b81019080805190602001909291905050509050823a02670de0b6b3a764000001811115613e9c576000801b915050614042565b6060613ea7856140a7565b9050600160009054906101000a900473ffffffffffffffffffffffffffffffffffffffff1673ffffffffffffffffffffffffffffffffffffffff1663c55c1cb68360008985896040518663ffffffff1660e01b8152600401808581526020018060200180602001848152602001838103835286818151815260200191508051906020019080838360005b83811015613f4c578082015181840152602081019050613f31565b50505050905090810190601f168015613f795780820380516001836020036101000a031916815260200191505b50838103825285818151815260200191508051906020019080838360005b83811015613fb2578082015181840152602081019050613f97565b50505050905090810190601f168015613fdf5780820380516001836020036101000a031916815260200191505b5096505050505050506020604051808303818588803b15801561400157600080fd5b505af1158015614015573d6000803e3d6000fd5b50505050506040513d602081101561402c57600080fd5b8101908080519060200190929190505050925050505b9392505050565b806003908051906020019061405f929190614551565b5050565b60008060008060405188815287602082015286604082015285606082015260208160808360006001610bb8f192508051915050818193509350505094509492505050565b60606140b1614127565b6140b96145d1565b6140c581610400614133565b6140ce8161417d565b60008090505b8351811015614110576141038482815181106140ec57fe5b60200260200101518361418b90919063ffffffff16565b80806001019150506140d4565b5061411a816141b0565b8060000151915050919050565b60405180590338823950565b600081905060006020828161414457fe5b061461415d576020818161415457fe5b06602003810190505b808360200181815250506040518084526000815281810160405250505050565b6141888160046141be565b50565b61419882600283516141df565b6141ab818361431f90919063ffffffff16565b505050565b6141bb8160076141be565b50565b6141db601f60058360ff16901b17836143ca90919063ffffffff16565b5050565b6017811161420b576142068160058460ff16901b60ff1617846143ca90919063ffffffff16565b61431a565b60ff811161424c57614230601860058460ff16901b17846143ca90919063ffffffff16565b6142468160018561440a9092919063ffffffff16565b50614319565b61ffff811161428e57614272601960058460ff16901b17846143ca90919063ffffffff16565b6142888160028561440a9092919063ffffffff16565b50614318565b63ffffffff81116142d2576142b6601a60058460ff16901b17846143ca90919063ffffffff16565b6142cc8160048561440a9092919063ffffffff16565b50614317565b67ffffffffffffffff8111614316576142fe601b60058460ff16901b17846143ca90919063ffffffff16565b6143148160088561440a9092919063ffffffff16565b505b5b5b5b5b505050565b6143276145d1565b826020015183600001515183510111156143575761435683600261435086602001518651614471565b0261448d565b5b60008060008451905085518051602081830101945086518101825260208701935050505b6020811061439e578151835260208301925060208201915060208103905061437b565b60006001826020036101000a039050801983511681855116818117865250508694505050505092915050565b816020015160018360000151510111156143f0576143ef82600284602001510261448d565b5b815180516020818301018381536001820183525050505050565b6144126145d1565b8360200151846000015151830111156144405761443f846002614439876020015186614471565b0261448d565b5b60006001836101000a0390508451805184818301018684198251161781528582018352505050849150509392505050565b60008183111561448357829050614487565b8190505b92915050565b6060826000015190506144a08383614133565b6144aa838261431f565b50505050565b6040518060600160405280600073ffffffffffffffffffffffffffffffffffffffff168152602001600081526020016000151581525090565b604051806080016040528060008019168152602001600073ffffffffffffffffffffffffffffffffffffffff16815260200160008152602001600081525090565b60405180608001604052806004905b60608152602001906001900390816145395790505090565b828054600181600116156101000203166002900490600052602060002090601f016020900481019282601f1061459257805160ff19168380011785556145c0565b828001600101855582156145c0579182015b828111156145bf5782518255916020019190600101906145a4565b5b5090506145cd91906145eb565b5090565b604051806040016040528060608152602001600081525090565b61460d91905b808211156146095760008160009055506001016145f1565b5090565b9056fe4d696e696d756d206265742068617320746f2062652061626f766520302e303031204554484e6f7420656e6f7567682062616c616e636520696e2074686520636f6e747261637420746f20737570706f72742074686520626574536166654d6174683a206d756c7469706c69636174696f6e206f766572666c6f77436f6e74726163742062616c616e63652069732024302e30302c207468657265206973206e6f7468696e6720746f2077697468647261777fb956469c5c9b89840d55b43537e66a98dd4811ea0a27224272c2e5622911e8537a2f8e86a46baec82864e98dd01e9ccc2f8bc5dfc9cbe5a91a290498dd96e4596f75722062616c616e63652069732024302e30302c207468657265206973206e6f7468696e6720746f207769746864726177a165627a7a72305820772fbc89fcacd77a2728fc4e912f9fed00af8682cb252a56feba8c42cfd15a4a0029",
  "source": "import \"./Ownable.sol\";\r\nimport \"./provableAPI.sol\";\r\nimport { SafeMath } from \"./SafeMath.sol\";\r\n\r\npragma solidity >= 0.5.0 < 0.6.0;\r\n\r\ncontract FlipCoin is Ownable, usingProvable {\r\n\r\n    using SafeMath for uint;\r\n\r\n    uint private minimumBet;\r\n    uint private contractBalance;\r\n    bytes32 queryId;\r\n    uint private constant NUM_RANDOM_BYTES_REQUESTED = 1;\r\n\r\n    struct Bet {\r\n        address player;\r\n        uint amount;\r\n        bool betPlaced;\r\n    }\r\n    struct Pending {\r\n        bytes32 id;\r\n        address player;\r\n        uint amount;\r\n        uint queryPrice;\r\n    }\r\n\r\n    mapping (address => Bet) private bets;\r\n    mapping (bytes32 => Pending) private pendingBets;\r\n    mapping (address => uint) private playersBalance;\r\n\r\n    constructor () public {\r\n        minimumBet = 1000000000000000;\r\n        provable_setProof(proofType_Ledger);\r\n    }\r\n\r\n    event LogNewProbableQuery(address indexed player);\r\n    event generatedRandomNumber(uint indexed random_Number);\r\n    event betResult(address indexed player, uint amount, bool indexed result);\r\n    event contractFunded(address indexed owner, uint indexed amount);\r\n    event playerWithdraw(address indexed player, uint indexed amount);\r\n    event contractWithdraw(address indexed owner, uint indexed amount);\r\n    event proofVerificationFail(bytes32 indexed Id);\r\n\r\n\r\n    function createBet () public payable {\r\n        require(bets[msg.sender].betPlaced == false, \"Bet already placed\");\r\n        require(msg.value >= minimumBet, \"Minimum bet has to be above 0.001 ETH\");\r\n        require(contractBalance >= msg.value, \"Not enough balance in the contract to support the bet\");\r\n\r\n        Bet memory newBet = Bet(msg.sender, msg.value, true);\r\n        _insertBet(newBet);\r\n\r\n        uint QUERY_EXECUTION_DELAY = 0;\r\n        uint GAS_FOR_CALLBACK = 200000;\r\n        queryId = provable_newRandomDSQuery(QUERY_EXECUTION_DELAY, NUM_RANDOM_BYTES_REQUESTED, GAS_FOR_CALLBACK);\r\n\r\n        Pending memory newPending = Pending(queryId, msg.sender, msg.value, provable_getPrice(\"Random\"));\r\n        _insertPending(newPending, queryId);\r\n\r\n        contractBalance = contractBalance.sub(bets[msg.sender].amount);\r\n        emit LogNewProbableQuery(msg.sender);\r\n    }\r\n\r\n    function __callback (bytes32 _queryId, string memory _result, bytes memory _proof) public {\r\n        require(msg.sender == provable_cbAddress());\r\n\r\n        if(provable_randomDS_proofVerify__returnCode(_queryId, _result, _proof) == 0){\r\n            uint randomNumber = uint(keccak256(abi.encodePacked(_result))) % 2;\r\n            emit generatedRandomNumber(randomNumber);\r\n            address _player = pendingBets[_queryId].player;\r\n            uint _amount = pendingBets[_queryId].amount;\r\n            uint _oracleCost = pendingBets[_queryId].queryPrice;\r\n            uint _totalAmount = _amount.mul(2).sub(_oracleCost);\r\n            //whoever wins pays the Oracle fee\r\n            if (randomNumber == 0) {\r\n                playersBalance[_player] = playersBalance[_player].add(_totalAmount);\r\n                emit betResult(_player, _totalAmount, true);\r\n            }\r\n            else {\r\n                contractBalance = contractBalance.add(_totalAmount);\r\n                emit betResult(_player, _amount, false);\r\n            }\r\n            delete bets[_player];\r\n            //_deleteBet(_player);\r\n            delete pendingBets[_queryId];\r\n            //_deletePending(_queryId);\r\n        }\r\n        else {\r\n            emit proofVerificationFail(_queryId);\r\n        }\r\n    }\r\n\r\n    function _insertBet (Bet memory newBet) private {\r\n        address betCreator = msg.sender;\r\n        bets[betCreator] = newBet;\r\n    }\r\n    function _insertPending (Pending memory newPending, bytes32 _queryId) private {\r\n        pendingBets[_queryId] = newPending;\r\n    }\r\n\r\n    function depositFunds () public payable onlyOwner returns (uint) {\r\n        contractBalance = contractBalance.add(msg.value);\r\n        emit contractFunded(msg.sender, msg.value);\r\n        return contractBalance;\r\n    }\r\n\r\n    function getContractBalance () public view returns (uint) {\r\n        return contractBalance;\r\n    }\r\n    function getPlayer () public view returns (address) {\r\n        address playerAddress = msg.sender;\r\n        return playerAddress;\r\n    }\r\n    function getPlayerBalance () public view returns (uint) {\r\n        return playersBalance[msg.sender];\r\n    }\r\n\r\n    function withdrawAllAvailable () public onlyOwner returns (uint) {\r\n        uint amountToWithdraw = contractBalance;\r\n        require(amountToWithdraw > 0, \"Contract balance is $0.00, there is nothing to withdraw\");\r\n        contractBalance = 0;\r\n        msg.sender.transfer(amountToWithdraw);\r\n        emit contractWithdraw(msg.sender, amountToWithdraw);\r\n        return contractBalance;\r\n    }\r\n\r\n    function payoutPlayer () public {\r\n        uint amounToPay = playersBalance[msg.sender];\r\n        require(amounToPay > 0, \"Your balance is $0.00, there is nothing to withdraw\");\r\n        playersBalance[msg.sender] = 0;\r\n        msg.sender.transfer(amounToPay);\r\n        emit playerWithdraw(msg.sender, amounToPay);\r\n    }\r\n}\r\n",
  "sourcePath": "C:/Users/urbat/Documents/ethereum-course-advanced/project1.0/contracts/Flip.sol",
  "compiler": {
    "name": "solc",
    "version": "0.5.8+commit.23d335f2.Emscripten.clang"
  },
  "schemaVersion": "3.0.16",
  "updatedAt": "2021-02-20T23:46:34.927Z",
  "devdoc": {
    "methods": {
      "__callback(bytes32,string)": {
        "details": "The following `__callback` functions are just placeholders ideally\r     meant to be defined in child contract when proofs are used.\r     The function bodies simply silence compiler warnings.\r"
      }
    }
  },
  "userdoc": {
    "methods": {}
  }
}