{
  "contractName": "FlipCoin",
  "abi": [
    {
      "constant": true,
      "inputs": [],
      "name": "owner",
      "outputs": [
        {
          "name": "",
          "type": "address"
        }
      ],
      "payable": false,
      "stateMutability": "view",
      "type": "function"
    },
    {
      "inputs": [],
      "payable": false,
      "stateMutability": "nonpayable",
      "type": "constructor"
    },
    {
      "anonymous": false,
      "inputs": [
        {
          "indexed": true,
          "name": "player",
          "type": "address"
        },
        {
          "indexed": true,
          "name": "amount",
          "type": "uint256"
        },
        {
          "indexed": true,
          "name": "decision",
          "type": "uint256"
        }
      ],
      "name": "LogNewProbableQuery",
      "type": "event"
    },
    {
      "anonymous": false,
      "inputs": [
        {
          "indexed": true,
          "name": "random_Number",
          "type": "uint256"
        }
      ],
      "name": "generatedRandomNumber",
      "type": "event"
    },
    {
      "anonymous": false,
      "inputs": [
        {
          "indexed": true,
          "name": "player",
          "type": "address"
        },
        {
          "indexed": true,
          "name": "amount",
          "type": "uint256"
        },
        {
          "indexed": true,
          "name": "result",
          "type": "bool"
        }
      ],
      "name": "betResult",
      "type": "event"
    },
    {
      "anonymous": false,
      "inputs": [
        {
          "indexed": true,
          "name": "owner",
          "type": "address"
        },
        {
          "indexed": true,
          "name": "amount",
          "type": "uint256"
        }
      ],
      "name": "contractFunded",
      "type": "event"
    },
    {
      "anonymous": false,
      "inputs": [
        {
          "indexed": true,
          "name": "player",
          "type": "address"
        },
        {
          "indexed": true,
          "name": "amount",
          "type": "uint256"
        }
      ],
      "name": "playerWithdraw",
      "type": "event"
    },
    {
      "anonymous": false,
      "inputs": [
        {
          "indexed": true,
          "name": "owner",
          "type": "address"
        },
        {
          "indexed": true,
          "name": "amount",
          "type": "uint256"
        }
      ],
      "name": "contractWithdraw",
      "type": "event"
    },
    {
      "anonymous": false,
      "inputs": [
        {
          "indexed": true,
          "name": "Id",
          "type": "bytes32"
        }
      ],
      "name": "proofVerificationFail",
      "type": "event"
    },
    {
      "constant": false,
      "inputs": [
        {
          "name": "_betChoice",
          "type": "uint256"
        }
      ],
      "name": "createBet",
      "outputs": [],
      "payable": true,
      "stateMutability": "payable",
      "type": "function"
    },
    {
      "constant": false,
      "inputs": [
        {
          "name": "_myid",
          "type": "bytes32"
        },
        {
          "name": "_result",
          "type": "string"
        }
      ],
      "name": "__callback",
      "outputs": [],
      "payable": false,
      "stateMutability": "nonpayable",
      "type": "function"
    },
    {
      "constant": false,
      "inputs": [
        {
          "name": "_queryId",
          "type": "bytes32"
        },
        {
          "name": "_result",
          "type": "string"
        },
        {
          "name": "_proof",
          "type": "bytes"
        }
      ],
      "name": "__callback",
      "outputs": [],
      "payable": false,
      "stateMutability": "nonpayable",
      "type": "function"
    },
    {
      "constant": false,
      "inputs": [],
      "name": "depositFunds",
      "outputs": [
        {
          "name": "",
          "type": "uint256"
        }
      ],
      "payable": true,
      "stateMutability": "payable",
      "type": "function"
    },
    {
      "constant": true,
      "inputs": [],
      "name": "getContractBalance",
      "outputs": [
        {
          "name": "",
          "type": "uint256"
        }
      ],
      "payable": false,
      "stateMutability": "view",
      "type": "function"
    },
    {
      "constant": true,
      "inputs": [],
      "name": "getPlayer",
      "outputs": [
        {
          "name": "",
          "type": "address"
        }
      ],
      "payable": false,
      "stateMutability": "view",
      "type": "function"
    },
    {
      "constant": true,
      "inputs": [],
      "name": "getPlayerBalance",
      "outputs": [
        {
          "name": "",
          "type": "uint256"
        }
      ],
      "payable": false,
      "stateMutability": "view",
      "type": "function"
    },
    {
      "constant": false,
      "inputs": [],
      "name": "withdrawAllAvailable",
      "outputs": [
        {
          "name": "",
          "type": "uint256"
        }
      ],
      "payable": false,
      "stateMutability": "nonpayable",
      "type": "function"
    },
    {
      "constant": false,
      "inputs": [],
      "name": "payoutPlayer",
      "outputs": [],
      "payable": false,
      "stateMutability": "nonpayable",
      "type": "function"
    }
  ],
  "bytecode": "0x60806040523480156200001157600080fd5b50336000806101000a81548173ffffffffffffffffffffffffffffffffffffffff021916908373ffffffffffffffffffffffffffffffffffffffff16021790555066038d7ea4c6800060068190555062000075603060f81b6200007b60201b60201c565b62000a9f565b600073ffffffffffffffffffffffffffffffffffffffff16600260009054906101000a900473ffffffffffffffffffffffffffffffffffffffff1673ffffffffffffffffffffffffffffffffffffffff1614806200010b5750600062000109600260009054906101000a900473ffffffffffffffffffffffffffffffffffffffff16620003e160201b60201c565b145b156200012557620001236000620003ec60201b60201c565b505b600260009054906101000a900473ffffffffffffffffffffffffffffffffffffffff1673ffffffffffffffffffffffffffffffffffffffff166338cc48316040518163ffffffff1660e01b8152600401602060405180830381600087803b1580156200019057600080fd5b505af1158015620001a5573d6000803e3d6000fd5b505050506040513d6020811015620001bc57600080fd5b810190808051906020019092919050505073ffffffffffffffffffffffffffffffffffffffff16600160009054906101000a900473ffffffffffffffffffffffffffffffffffffffff1673ffffffffffffffffffffffffffffffffffffffff16146200030b57600260009054906101000a900473ffffffffffffffffffffffffffffffffffffffff1673ffffffffffffffffffffffffffffffffffffffff166338cc48316040518163ffffffff1660e01b8152600401602060405180830381600087803b1580156200028d57600080fd5b505af1158015620002a2573d6000803e3d6000fd5b505050506040513d6020811015620002b957600080fd5b8101908080519060200190929190505050600160006101000a81548173ffffffffffffffffffffffffffffffffffffffff021916908373ffffffffffffffffffffffffffffffffffffffff1602179055505b600160009054906101000a900473ffffffffffffffffffffffffffffffffffffffff1673ffffffffffffffffffffffffffffffffffffffff1663688dcfd7826040518263ffffffff1660e01b815260040180827effffffffffffffffffffffffffffffffffffffffffffffffffffffffffffff19167effffffffffffffffffffffffffffffffffffffffffffffffffffffffffffff19168152602001915050600060405180830381600087803b158015620003c557600080fd5b505af1158015620003da573d6000803e3d6000fd5b5050505050565b6000813b9050919050565b6000620003fe6200040560201b60201c565b9050919050565b6000806200042d731d3b2638a7cc9f2cb3d298a3da7a90b67e5506ed620003e160201b60201c565b1115620004d957731d3b2638a7cc9f2cb3d298a3da7a90b67e5506ed600260006101000a81548173ffffffffffffffffffffffffffffffffffffffff021916908373ffffffffffffffffffffffffffffffffffffffff160217905550620004cf6040518060400160405280600b81526020017f6574685f6d61696e6e6574000000000000000000000000000000000000000000815250620009d460201b60201c565b60019050620009d1565b60006200050073c03a2615d5efaf5f49f60b7bb6583eaec212fdf1620003e160201b60201c565b1115620005ac5773c03a2615d5efaf5f49f60b7bb6583eaec212fdf1600260006101000a81548173ffffffffffffffffffffffffffffffffffffffff021916908373ffffffffffffffffffffffffffffffffffffffff160217905550620005a26040518060400160405280600c81526020017f6574685f726f707374656e330000000000000000000000000000000000000000815250620009d460201b60201c565b60019050620009d1565b6000620005d373b7a07bcf2ba2f2703b24c0691b5278999c59ac7e620003e160201b60201c565b11156200067f5773b7a07bcf2ba2f2703b24c0691b5278999c59ac7e600260006101000a81548173ffffffffffffffffffffffffffffffffffffffff021916908373ffffffffffffffffffffffffffffffffffffffff160217905550620006756040518060400160405280600981526020017f6574685f6b6f76616e0000000000000000000000000000000000000000000000815250620009d460201b60201c565b60019050620009d1565b6000620006a673146500cfd35b22e4a392fe0adc06de1a1368ed48620003e160201b60201c565b1115620007525773146500cfd35b22e4a392fe0adc06de1a1368ed48600260006101000a81548173ffffffffffffffffffffffffffffffffffffffff021916908373ffffffffffffffffffffffffffffffffffffffff160217905550620007486040518060400160405280600b81526020017f6574685f72696e6b656279000000000000000000000000000000000000000000815250620009d460201b60201c565b60019050620009d1565b60006200077973a2998efd205fb9d4b4963afb70778d6354ad3a41620003e160201b60201c565b1115620008255773a2998efd205fb9d4b4963afb70778d6354ad3a41600260006101000a81548173ffffffffffffffffffffffffffffffffffffffff021916908373ffffffffffffffffffffffffffffffffffffffff1602179055506200081b6040518060400160405280600a81526020017f6574685f676f65726c6900000000000000000000000000000000000000000000815250620009d460201b60201c565b60019050620009d1565b60006200084c736f485c8bf6fc43ea212e93bbf8ce046c7f1cb475620003e160201b60201c565b1115620008b257736f485c8bf6fc43ea212e93bbf8ce046c7f1cb475600260006101000a81548173ffffffffffffffffffffffffffffffffffffffff021916908373ffffffffffffffffffffffffffffffffffffffff16021790555060019050620009d1565b6000620008d97320e12a1f859b3feae5fb2a0a32c18f5a65555bbf620003e160201b60201c565b11156200093f577320e12a1f859b3feae5fb2a0a32c18f5a65555bbf600260006101000a81548173ffffffffffffffffffffffffffffffffffffffff021916908373ffffffffffffffffffffffffffffffffffffffff16021790555060019050620009d1565b6000620009667351efaf4c8b3c9afbd5ab9f4bbc82784ab6ef8faa620003e160201b60201c565b1115620009cc577351efaf4c8b3c9afbd5ab9f4bbc82784ab6ef8faa600260006101000a81548173ffffffffffffffffffffffffffffffffffffffff021916908373ffffffffffffffffffffffffffffffffffffffff16021790555060019050620009d1565b600090505b90565b8060039080519060200190620009ec929190620009f0565b5050565b828054600181600116156101000203166002900490600052602060002090601f016020900481019282601f1062000a3357805160ff191683800117855562000a64565b8280016001018555821562000a64579182015b8281111562000a6357825182559160200191906001019062000a46565b5b50905062000a73919062000a77565b5090565b62000a9c91905b8082111562000a9857600081600090555060010162000a7e565b5090565b90565b614a028062000aaf6000396000f3fe6080604052600436106100915760003560e01c80638da5cb5b116100595780638da5cb5b1461037e578063a6440fe2146103d5578063ac793a6014610400578063dcb791401461042e578063e2c41dbc1461044557610091565b80630b01517c1461009657806327dc297e146100c15780633308f42d1461019357806338bbfa50146101ea5780636f9fb98a14610353575b600080fd5b3480156100a257600080fd5b506100ab610463565b6040518082815260200191505060405180910390f35b3480156100cd57600080fd5b50610191600480360360408110156100e457600080fd5b81019080803590602001909291908035906020019064010000000081111561010b57600080fd5b82018360208201111561011d57600080fd5b8035906020019184600183028401116401000000008311171561013f57600080fd5b91908080601f016020809104026020016040519081016040528093929190818152602001838380828437600081840152601f19601f8201169050808301925050505050505091929192905050506104aa565b005b34801561019f57600080fd5b506101a86104ed565b604051808273ffffffffffffffffffffffffffffffffffffffff1673ffffffffffffffffffffffffffffffffffffffff16815260200191505060405180910390f35b3480156101f657600080fd5b506103516004803603606081101561020d57600080fd5b81019080803590602001909291908035906020019064010000000081111561023457600080fd5b82018360208201111561024657600080fd5b8035906020019184600183028401116401000000008311171561026857600080fd5b91908080601f016020809104026020016040519081016040528093929190818152602001838380828437600081840152601f19601f820116905080830192505050505050509192919290803590602001906401000000008111156102cb57600080fd5b8201836020820111156102dd57600080fd5b803590602001918460018302840111640100000000831117156102ff57600080fd5b91908080601f016020809104026020016040519081016040528093929190818152602001838380828437600081840152601f19601f8201169050808301925050505050505091929192905050506104fa565b005b34801561035f57600080fd5b5061036861083f565b6040518082815260200191505060405180910390f35b34801561038a57600080fd5b50610393610849565b604051808273ffffffffffffffffffffffffffffffffffffffff1673ffffffffffffffffffffffffffffffffffffffff16815260200191505060405180910390f35b3480156103e157600080fd5b506103ea61086e565b6040518082815260200191505060405180910390f35b61042c6004803603602081101561041657600080fd5b81019080803590602001909291905050506109d1565b005b34801561043a57600080fd5b50610443610cf1565b005b61044d610eaa565b6040518082815260200191505060405180910390f35b6000600b60003373ffffffffffffffffffffffffffffffffffffffff1673ffffffffffffffffffffffffffffffffffffffff16815260200190815260200160002054905090565b6104e9828260006040519080825280601f01601f1916602001820160405280156104e35781602001600182028038833980820191505090505b506104fa565b5050565b6000803390508091505090565b610502610f78565b73ffffffffffffffffffffffffffffffffffffffff163373ffffffffffffffffffffffffffffffffffffffff161461053957600080fd5b6000610546848484611298565b60ff16141561080c5760006002836040516020018082805190602001908083835b6020831061058a5780518252602082019150602081019050602083039250610567565b6001836020036101000a0380198251168184511680821785525050505050509050019150506040516020818303038152906040528051906020012060001c816105cf57fe5b06905060008114806105e15750600181145b6105e757fe5b807fc13d60fe9dffdb6908d2d446cd18134373a51db0738ee04f296eeb9128121cbc60405160405180910390a26000600a600086815260200190815260200160002060010160009054906101000a900473ffffffffffffffffffffffffffffffffffffffff1690506000600a60008781526020019081526020016000206002015490506000600a600088815260200190815260200160002060030154905060006106ad8261069f6002866113c890919063ffffffff16565b61144e90919063ffffffff16565b90506000600960008673ffffffffffffffffffffffffffffffffffffffff1673ffffffffffffffffffffffffffffffffffffffff16815260200190815260200160002060030154905061070a6002856113c890919063ffffffff16565b82111561071357fe5b61071f85838884611498565b600960008673ffffffffffffffffffffffffffffffffffffffff1673ffffffffffffffffffffffffffffffffffffffff168152602001908152602001600020600080820160006101000a81549073ffffffffffffffffffffffffffffffffffffffff021916905560018201600090556002820160006101000a81549060ff021916905560038201600090555050600a60008a81526020019081526020016000206000808201600090556001820160006101000a81549073ffffffffffffffffffffffffffffffffffffffff021916905560028201600090556003820160009055505050505050505061083a565b827f3487e280549f8291b0d7925045c609dc53762d600795125c19f7870b32f2991860405160405180910390a25b505050565b6000600754905090565b6000809054906101000a900473ffffffffffffffffffffffffffffffffffffffff1681565b60008060009054906101000a900473ffffffffffffffffffffffffffffffffffffffff1673ffffffffffffffffffffffffffffffffffffffff163373ffffffffffffffffffffffffffffffffffffffff16146108c957600080fd5b6000600754905060008111610929576040517f08c379a000000000000000000000000000000000000000000000000000000000815260040180806020018281038252603781526020018061492d6037913960400191505060405180910390fd5b600060078190555060006007541461093d57fe5b3373ffffffffffffffffffffffffffffffffffffffff166108fc829081150290604051600060405180830381858888f19350505050158015610983573d6000803e3d6000fd5b50803373ffffffffffffffffffffffffffffffffffffffff167f82f1f08d0d9b1d46df8a71ee7b7b995dd44e25e019fc31fb42f88451d0ad5c7460405160405180910390a360075491505090565b60001515600960003373ffffffffffffffffffffffffffffffffffffffff1673ffffffffffffffffffffffffffffffffffffffff16815260200190815260200160002060020160009054906101000a900460ff16151514610a9a576040517f08c379a00000000000000000000000000000000000000000000000000000000081526004018080602001828103825260128152602001807f42657420616c726561647920706c61636564000000000000000000000000000081525060200191505060405180910390fd5b600654341015610af5576040517f08c379a00000000000000000000000000000000000000000000000000000000081526004018080602001828103825260258152602001806148b26025913960400191505060405180910390fd5b346007541015610b50576040517f08c379a00000000000000000000000000000000000000000000000000000000081526004018080602001828103825260358152602001806148d76035913960400191505060405180910390fd5b610b5861474a565b60405180608001604052803373ffffffffffffffffffffffffffffffffffffffff168152602001348152602001600115158152602001838152509050610b9d8161176f565b6000809050600062030d409050610bb682600183611836565b600881905550610bc461478a565b604051806080016040528060085481526020013373ffffffffffffffffffffffffffffffffffffffff168152602001348152602001610c376040518060400160405280600681526020017f52616e646f6d0000000000000000000000000000000000000000000000000000815250611dd1565b8152509050610c4881600854612165565b610c9f600960003373ffffffffffffffffffffffffffffffffffffffff1673ffffffffffffffffffffffffffffffffffffffff1681526020019081526020016000206001015460075461144e90919063ffffffff16565b60078190555084343373ffffffffffffffffffffffffffffffffffffffff167fec35ac2d93f96ed515144c8e031a45117c872de56715ed64de286a892e7adc7660405160405180910390a45050505050565b6000600b60003373ffffffffffffffffffffffffffffffffffffffff1673ffffffffffffffffffffffffffffffffffffffff16815260200190815260200160002054905060008111610d8e576040517f08c379a00000000000000000000000000000000000000000000000000000000081526004018080602001828103825260338152602001806149a46033913960400191505060405180910390fd5b6000600b60003373ffffffffffffffffffffffffffffffffffffffff1673ffffffffffffffffffffffffffffffffffffffff168152602001908152602001600020819055506000600b60003373ffffffffffffffffffffffffffffffffffffffff1673ffffffffffffffffffffffffffffffffffffffff1681526020019081526020016000205414610e1c57fe5b3373ffffffffffffffffffffffffffffffffffffffff166108fc829081150290604051600060405180830381858888f19350505050158015610e62573d6000803e3d6000fd5b50803373ffffffffffffffffffffffffffffffffffffffff167f7804b809b0affd82f31b74be3ae3f91788a1016375791008c346590f19029b2c60405160405180910390a350565b60008060009054906101000a900473ffffffffffffffffffffffffffffffffffffffff1673ffffffffffffffffffffffffffffffffffffffff163373ffffffffffffffffffffffffffffffffffffffff1614610f0557600080fd5b610f1a346007546121e590919063ffffffff16565b600781905550346007541015610f2c57fe5b343373ffffffffffffffffffffffffffffffffffffffff167fff043843182fec3fbcbc695545b7652d340a2cf0919615adb04d98a00e7de8e260405160405180910390a3600754905090565b60008073ffffffffffffffffffffffffffffffffffffffff16600260009054906101000a900473ffffffffffffffffffffffffffffffffffffffff1673ffffffffffffffffffffffffffffffffffffffff16148061100057506000610ffe600260009054906101000a900473ffffffffffffffffffffffffffffffffffffffff1661226d565b145b156110115761100f6000612278565b505b600260009054906101000a900473ffffffffffffffffffffffffffffffffffffffff1673ffffffffffffffffffffffffffffffffffffffff166338cc48316040518163ffffffff1660e01b8152600401602060405180830381600087803b15801561107b57600080fd5b505af115801561108f573d6000803e3d6000fd5b505050506040513d60208110156110a557600080fd5b810190808051906020019092919050505073ffffffffffffffffffffffffffffffffffffffff16600160009054906101000a900473ffffffffffffffffffffffffffffffffffffffff1673ffffffffffffffffffffffffffffffffffffffff16146111f057600260009054906101000a900473ffffffffffffffffffffffffffffffffffffffff1673ffffffffffffffffffffffffffffffffffffffff166338cc48316040518163ffffffff1660e01b8152600401602060405180830381600087803b15801561117457600080fd5b505af1158015611188573d6000803e3d6000fd5b505050506040513d602081101561119e57600080fd5b8101908080519060200190929190505050600160006101000a81548173ffffffffffffffffffffffffffffffffffffffff021916908373ffffffffffffffffffffffffffffffffffffffff1602179055505b600160009054906101000a900473ffffffffffffffffffffffffffffffffffffffff1673ffffffffffffffffffffffffffffffffffffffff1663c281d19e6040518163ffffffff1660e01b815260040160206040518083038186803b15801561125857600080fd5b505afa15801561126c573d6000803e3d6000fd5b505050506040513d602081101561128257600080fd5b8101908080519060200190929190505050905090565b60007f4c00000000000000000000000000000000000000000000000000000000000000826000815181106112c857fe5b602001015160f81c60f81b7effffffffffffffffffffffffffffffffffffffffffffffffffffffffffffff191614158061135b57507f50000000000000000000000000000000000000000000000000000000000000008260018151811061132b57fe5b602001015160f81c60f81b7effffffffffffffffffffffffffffffffffffffffffffffffffffffffffffff191614155b806113875750600160ff168260028151811061137357fe5b602001015160f81c60f81b60f81c60ff1614155b1561139557600190506113c1565b60006113aa8386866113a5612289565b61232b565b9050806113bb5760029150506113c1565b60009150505b9392505050565b6000808314156113db5760009050611448565b60008284029050828482816113ec57fe5b0414611443576040517f08c379a000000000000000000000000000000000000000000000000000000000815260040180806020018281038252602181526020018061490c6021913960400191505060405180910390fd5b809150505b92915050565b600061149083836040518060400160405280601e81526020017f536166654d6174683a207375627472616374696f6e206f766572666c6f7700008152506129d6565b905092915050565b6000821480156114a85750600081145b1561158f576114ff83600b60008773ffffffffffffffffffffffffffffffffffffffff1673ffffffffffffffffffffffffffffffffffffffff168152602001908152602001600020546121e590919063ffffffff16565b600b60008673ffffffffffffffffffffffffffffffffffffffff1673ffffffffffffffffffffffffffffffffffffffff1681526020019081526020016000208190555060011515838573ffffffffffffffffffffffffffffffffffffffff167f0225d8feb385242f442c203c6050dada47778ecdc263014b186cf756575b6fe860405160405180910390a4611769565b60008214801561159f5750600181145b1561160c576115b9836007546121e590919063ffffffff16565b60078190555060001515838573ffffffffffffffffffffffffffffffffffffffff167f0225d8feb385242f442c203c6050dada47778ecdc263014b186cf756575b6fe860405160405180910390a4611768565b60018214801561161c5750600181145b156117035761167383600b60008773ffffffffffffffffffffffffffffffffffffffff1673ffffffffffffffffffffffffffffffffffffffff168152602001908152602001600020546121e590919063ffffffff16565b600b60008673ffffffffffffffffffffffffffffffffffffffff1673ffffffffffffffffffffffffffffffffffffffff1681526020019081526020016000208190555060011515838573ffffffffffffffffffffffffffffffffffffffff167f0225d8feb385242f442c203c6050dada47778ecdc263014b186cf756575b6fe860405160405180910390a4611767565b611718836007546121e590919063ffffffff16565b60078190555060001515838573ffffffffffffffffffffffffffffffffffffffff167f0225d8feb385242f442c203c6050dada47778ecdc263014b186cf756575b6fe860405160405180910390a45b5b5b50505050565b600033905081600960008373ffffffffffffffffffffffffffffffffffffffff1673ffffffffffffffffffffffffffffffffffffffff16815260200190815260200160002060008201518160000160006101000a81548173ffffffffffffffffffffffffffffffffffffffff021916908373ffffffffffffffffffffffffffffffffffffffff1602179055506020820151816001015560408201518160020160006101000a81548160ff021916908315150217905550606082015181600301559050505050565b60008083118015611848575060208311155b61185157600080fd5b600a84029350606060016040519080825280601f01601f19166020018201604052801561188d5781602001600182028038833980820191505090505b5090508360f81b816000815181106118a157fe5b60200101907effffffffffffffffffffffffffffffffffffffffffffffffffffffffffffff1916908160001a905350606060206040519080825280601f01601f1916602001820160405280156119065781602001600182028038833980820191505090505b509050606060206040519080825280601f01601f19166020018201604052801561193f5781602001600182028038833980820191505090505b509050600061194c612a96565b905060208352424118600143034018602084015260208252806020830152606060206040519080825280601f01601f1916602001820160405280156119a05781602001600182028038833980820191505090505b509050886020820152606060086040519080825280601f01601f1916602001820160405280156119df5781602001600182028038833980820191505090505b5090506119f28260186008846000612db6565b506119fb6147cb565b60405180608001604052808781526020018881526020018681526020018481525090506000611a606040518060400160405280600681526020017f72616e646f6d0000000000000000000000000000000000000000000000000000815250838c612e15565b9050606060086040519080825280601f01601f191660200182016040528015611a985781602001600182028038833980820191505090505b50905060208401517f0100000000000000000000000000000000000000000000000000000000000000810460278301537e01000000000000000000000000000000000000000000000000000000000000810460268301537d010000000000000000000000000000000000000000000000000000000000810460258301537c0100000000000000000000000000000000000000000000000000000000810460248301537b01000000000000000000000000000000000000000000000000000000810460238301537a010000000000000000000000000000000000000000000000000000810460228301537901000000000000000000000000000000000000000000000000008104602183015378010000000000000000000000000000000000000000000000008104602083015350611dbe828285600160048110611bd757fe5b6020020151600287600060048110611beb57fe5b60200201516040518082805190602001908083835b60208310611c235780518252602082019150602081019050602083039250611c00565b6001836020036101000a038019825116818451168082178552505050505050905001915050602060405180830381855afa158015611c65573d6000803e3d6000fd5b5050506040513d6020811015611c7a57600080fd5b810190808051906020019092919050505087600260048110611c9857fe5b60200201516040516020018085805190602001908083835b60208310611cd35780518252602082019150602081019050602083039250611cb0565b6001836020036101000a03801982511681845116808217855250505050505090500184805190602001908083835b60208310611d245780518252602082019150602081019050602083039250611d01565b6001836020036101000a03801982511681845116808217855250505050505090500183815260200182805190602001908083835b60208310611d7b5780518252602082019150602081019050602083039250611d58565b6001836020036101000a03801982511681845116808217855250505050505090500194505050505060405160208183030381529060405280519060200120613184565b8199505050505050505050509392505050565b60008073ffffffffffffffffffffffffffffffffffffffff16600260009054906101000a900473ffffffffffffffffffffffffffffffffffffffff1673ffffffffffffffffffffffffffffffffffffffff161480611e5957506000611e57600260009054906101000a900473ffffffffffffffffffffffffffffffffffffffff1661226d565b145b15611e6a57611e686000612278565b505b600260009054906101000a900473ffffffffffffffffffffffffffffffffffffffff1673ffffffffffffffffffffffffffffffffffffffff166338cc48316040518163ffffffff1660e01b8152600401602060405180830381600087803b158015611ed457600080fd5b505af1158015611ee8573d6000803e3d6000fd5b505050506040513d6020811015611efe57600080fd5b810190808051906020019092919050505073ffffffffffffffffffffffffffffffffffffffff16600160009054906101000a900473ffffffffffffffffffffffffffffffffffffffff1673ffffffffffffffffffffffffffffffffffffffff161461204957600260009054906101000a900473ffffffffffffffffffffffffffffffffffffffff1673ffffffffffffffffffffffffffffffffffffffff166338cc48316040518163ffffffff1660e01b8152600401602060405180830381600087803b158015611fcd57600080fd5b505af1158015611fe1573d6000803e3d6000fd5b505050506040513d6020811015611ff757600080fd5b8101908080519060200190929190505050600160006101000a81548173ffffffffffffffffffffffffffffffffffffffff021916908373ffffffffffffffffffffffffffffffffffffffff1602179055505b600160009054906101000a900473ffffffffffffffffffffffffffffffffffffffff1673ffffffffffffffffffffffffffffffffffffffff1663524f3889836040518263ffffffff1660e01b81526004018080602001828103825283818151815260200191508051906020019080838360005b838110156120d75780820151818401526020810190506120bc565b50505050905090810190601f1680156121045780820380516001836020036101000a031916815260200191505b5092505050602060405180830381600087803b15801561212357600080fd5b505af1158015612137573d6000803e3d6000fd5b505050506040513d602081101561214d57600080fd5b81019080805190602001909291905050509050919050565b81600a60008381526020019081526020016000206000820151816000015560208201518160010160006101000a81548173ffffffffffffffffffffffffffffffffffffffff021916908373ffffffffffffffffffffffffffffffffffffffff16021790555060408201518160020155606082015181600301559050505050565b600080828401905083811015612263576040517f08c379a000000000000000000000000000000000000000000000000000000000815260040180806020018281038252601b8152602001807f536166654d6174683a206164646974696f6e206f766572666c6f77000000000081525060200191505060405180910390fd5b8091505092915050565b6000813b9050919050565b60006122826131a0565b9050919050565b606060038054600181600116156101000203166002900480601f0160208091040260200160405190810160405280929190818152602001828054600181600116156101000203166002900480156123215780601f106122f657610100808354040283529160200191612321565b820191906000526020600020905b81548152906001019060200180831161230457829003601f168201915b5050505050905090565b600080602060028760458151811061233f57fe5b602001015160f81c60f81b60f81c60ff1601604401019050606060206040519080825280601f01601f19166020018201604052801561238d5781602001600182028038833980820191505090505b50905061239f87836020846000612db6565b50600284876040516020018083805190602001908083835b602083106123da57805182526020820191506020810190506020830392506123b7565b6001836020036101000a038019825116818451168082178552505050505050905001828152602001925050506040516020818303038152906040526040518082805190602001908083835b602083106124485780518252602082019150602081019050602083039250612425565b6001836020036101000a038019825116818451168082178552505050505050905001915050602060405180830381855afa15801561248a573d6000803e3d6000fd5b5050506040513d602081101561249f57600080fd5b810190808051906020019092919050505060405160200180828152602001915050604051602081830303815290604052805190602001208180519060200120146124ee576000925050506129ce565b6060600288600160498601018151811061250457fe5b602001015160f81c60f81b60f81c60ff16016040519080825280601f01601f1916602001820160405280156125485781602001600182028038833980820191505090505b50905061255d88604985018351846000612db6565b506126286002826040518082805190602001908083835b602083106125975780518252602082019150602081019050602083039250612574565b6001836020036101000a038019825116818451168082178552505050505050905001915050602060405180830381855afa1580156125d9573d6000803e3d6000fd5b5050506040513d60208110156125ee57600080fd5b8101908080519060200190929190505050878a600860208801018151811061261257fe5b602001015160f81c60f81b60f81c60ff166136f7565b61263857600093505050506129ce565b606060296040519080825280601f01601f19166020018201604052801561266e5781602001600182028038833980820191505090505b50905061268389602086016029846000612db6565b506060604080519080825280601f01601f1916602001820160405280156126b95781602001600182028038833980820191505090505b50905060006041845160296020890101010190506126df8b604083036040856000612db6565b5060006002836040518082805190602001908083835b6020831061271857805182526020820191506020810190506020830392506126f5565b6001836020036101000a038019825116818451168082178552505050505050905001915050602060405180830381855afa15801561275a573d6000803e3d6000fd5b5050506040513d602081101561276f57600080fd5b8101908080519060200190929190505050905083816040516020018083805190602001908083835b602083106127ba5780518252602082019150602081019050602083039250612797565b6001836020036101000a0380198251168184511680821785525050505050509050018281526020019250505060405160208183030381529060405280519060200120600460008d815260200190815260200160002054141561283257600460008c815260200190815260200160002060009055612842565b60009750505050505050506129ce565b606060496040519080825280601f01601f1916602001820160405280156128785781602001600182028038833980820191505090505b50905061288a8d896049846000612db6565b506129336002826040518082805190602001908083835b602083106128c457805182526020820191506020810190506020830392506128a1565b6001836020036101000a038019825116818451168082178552505050505050905001915050602060405180830381855afa158015612906573d6000803e3d6000fd5b5050506040513d602081101561291b57600080fd5b810190808051906020019092919050505087866137a7565b612948576000985050505050505050506129ce565b6005600083815260200190815260200160002060009054906101000a900460ff166129a2576129778d84613965565b6005600084815260200190815260200160002060006101000a81548160ff0219169083151502179055505b6005600083815260200190815260200160002060009054906101000a900460ff16985050505050505050505b949350505050565b6000838311158290612a83576040517f08c379a00000000000000000000000000000000000000000000000000000000081526004018080602001828103825283818151815260200191508051906020019080838360005b83811015612a48578082015181840152602081019050612a2d565b50505050905090810190601f168015612a755780820380516001836020036101000a031916815260200191505b509250505060405180910390fd5b5060008385039050809150509392505050565b60008073ffffffffffffffffffffffffffffffffffffffff16600260009054906101000a900473ffffffffffffffffffffffffffffffffffffffff1673ffffffffffffffffffffffffffffffffffffffff161480612b1e57506000612b1c600260009054906101000a900473ffffffffffffffffffffffffffffffffffffffff1661226d565b145b15612b2f57612b2d6000612278565b505b600260009054906101000a900473ffffffffffffffffffffffffffffffffffffffff1673ffffffffffffffffffffffffffffffffffffffff166338cc48316040518163ffffffff1660e01b8152600401602060405180830381600087803b158015612b9957600080fd5b505af1158015612bad573d6000803e3d6000fd5b505050506040513d6020811015612bc357600080fd5b810190808051906020019092919050505073ffffffffffffffffffffffffffffffffffffffff16600160009054906101000a900473ffffffffffffffffffffffffffffffffffffffff1673ffffffffffffffffffffffffffffffffffffffff1614612d0e57600260009054906101000a900473ffffffffffffffffffffffffffffffffffffffff1673ffffffffffffffffffffffffffffffffffffffff166338cc48316040518163ffffffff1660e01b8152600401602060405180830381600087803b158015612c9257600080fd5b505af1158015612ca6573d6000803e3d6000fd5b505050506040513d6020811015612cbc57600080fd5b8101908080519060200190929190505050600160006101000a81548173ffffffffffffffffffffffffffffffffffffffff021916908373ffffffffffffffffffffffffffffffffffffffff1602179055505b600160009054906101000a900473ffffffffffffffffffffffffffffffffffffffff1673ffffffffffffffffffffffffffffffffffffffff1663abaa5f3e6040518163ffffffff1660e01b815260040160206040518083038186803b158015612d7657600080fd5b505afa158015612d8a573d6000803e3d6000fd5b505050506040513d6020811015612da057600080fd5b8101908080519060200190929190505050905090565b6060600082850190508084511015612dcd57600080fd5b600086602001905060008460200190505b868860200101821015612e065781890151808288015250602082019150602081019050612dde565b85935050505095945050505050565b60008073ffffffffffffffffffffffffffffffffffffffff16600260009054906101000a900473ffffffffffffffffffffffffffffffffffffffff1673ffffffffffffffffffffffffffffffffffffffff161480612e9d57506000612e9b600260009054906101000a900473ffffffffffffffffffffffffffffffffffffffff1661226d565b145b15612eae57612eac6000612278565b505b600260009054906101000a900473ffffffffffffffffffffffffffffffffffffffff1673ffffffffffffffffffffffffffffffffffffffff166338cc48316040518163ffffffff1660e01b8152600401602060405180830381600087803b158015612f1857600080fd5b505af1158015612f2c573d6000803e3d6000fd5b505050506040513d6020811015612f4257600080fd5b810190808051906020019092919050505073ffffffffffffffffffffffffffffffffffffffff16600160009054906101000a900473ffffffffffffffffffffffffffffffffffffffff1673ffffffffffffffffffffffffffffffffffffffff161461308d57600260009054906101000a900473ffffffffffffffffffffffffffffffffffffffff1673ffffffffffffffffffffffffffffffffffffffff166338cc48316040518163ffffffff1660e01b8152600401602060405180830381600087803b15801561301157600080fd5b505af1158015613025573d6000803e3d6000fd5b505050506040513d602081101561303b57600080fd5b8101908080519060200190929190505050600160006101000a81548173ffffffffffffffffffffffffffffffffffffffff021916908373ffffffffffffffffffffffffffffffffffffffff1602179055505b606060046040519080825280602002602001820160405280156130c457816020015b60608152602001906001900390816130af5790505b509050836000600481106130d457fe5b6020020151816000815181106130e657fe5b6020026020010181905250836001600481106130fe57fe5b60200201518160018151811061311057fe5b60200260200101819052508360026004811061312857fe5b60200201518160028151811061313a57fe5b60200260200101819052508360036004811061315257fe5b60200201518160038151811061316457fe5b602002602001018190525061317a858285613d7d565b9150509392505050565b8060046000848152602001908152602001600020819055505050565b6000806131c0731d3b2638a7cc9f2cb3d298a3da7a90b67e5506ed61226d565b111561326257731d3b2638a7cc9f2cb3d298a3da7a90b67e5506ed600260006101000a81548173ffffffffffffffffffffffffffffffffffffffff021916908373ffffffffffffffffffffffffffffffffffffffff1602179055506132596040518060400160405280600b81526020017f6574685f6d61696e6e65740000000000000000000000000000000000000000008152506142e3565b600190506136f4565b600061328173c03a2615d5efaf5f49f60b7bb6583eaec212fdf161226d565b11156133235773c03a2615d5efaf5f49f60b7bb6583eaec212fdf1600260006101000a81548173ffffffffffffffffffffffffffffffffffffffff021916908373ffffffffffffffffffffffffffffffffffffffff16021790555061331a6040518060400160405280600c81526020017f6574685f726f707374656e3300000000000000000000000000000000000000008152506142e3565b600190506136f4565b600061334273b7a07bcf2ba2f2703b24c0691b5278999c59ac7e61226d565b11156133e45773b7a07bcf2ba2f2703b24c0691b5278999c59ac7e600260006101000a81548173ffffffffffffffffffffffffffffffffffffffff021916908373ffffffffffffffffffffffffffffffffffffffff1602179055506133db6040518060400160405280600981526020017f6574685f6b6f76616e00000000000000000000000000000000000000000000008152506142e3565b600190506136f4565b600061340373146500cfd35b22e4a392fe0adc06de1a1368ed4861226d565b11156134a55773146500cfd35b22e4a392fe0adc06de1a1368ed48600260006101000a81548173ffffffffffffffffffffffffffffffffffffffff021916908373ffffffffffffffffffffffffffffffffffffffff16021790555061349c6040518060400160405280600b81526020017f6574685f72696e6b6562790000000000000000000000000000000000000000008152506142e3565b600190506136f4565b60006134c473a2998efd205fb9d4b4963afb70778d6354ad3a4161226d565b11156135665773a2998efd205fb9d4b4963afb70778d6354ad3a41600260006101000a81548173ffffffffffffffffffffffffffffffffffffffff021916908373ffffffffffffffffffffffffffffffffffffffff16021790555061355d6040518060400160405280600a81526020017f6574685f676f65726c69000000000000000000000000000000000000000000008152506142e3565b600190506136f4565b6000613585736f485c8bf6fc43ea212e93bbf8ce046c7f1cb47561226d565b11156135e957736f485c8bf6fc43ea212e93bbf8ce046c7f1cb475600260006101000a81548173ffffffffffffffffffffffffffffffffffffffff021916908373ffffffffffffffffffffffffffffffffffffffff160217905550600190506136f4565b60006136087320e12a1f859b3feae5fb2a0a32c18f5a65555bbf61226d565b111561366c577320e12a1f859b3feae5fb2a0a32c18f5a65555bbf600260006101000a81548173ffffffffffffffffffffffffffffffffffffffff021916908373ffffffffffffffffffffffffffffffffffffffff160217905550600190506136f4565b600061368b7351efaf4c8b3c9afbd5ab9f4bbc82784ab6ef8faa61226d565b11156136ef577351efaf4c8b3c9afbd5ab9f4bbc82784ab6ef8faa600260006101000a81548173ffffffffffffffffffffffffffffffffffffffff021916908373ffffffffffffffffffffffffffffffffffffffff160217905550600190506136f4565b600090505b90565b600080600190508284511461370b57600080fd5b60008090505b8381101561379b5784818151811061372557fe5b602001015160f81c60f81b7effffffffffffffffffffffffffffffffffffffffffffffffffffffffffffff191686826020811061375e57fe5b1a60f81b7effffffffffffffffffffffffffffffffffffffffffffffffffffffffffffff19161461378e57600091505b8080600101915050613711565b50809150509392505050565b6000806000806000606060206040519080825280601f01601f1916602001820160405280156137e55781602001600182028038833980820191505090505b50905060006020896003815181106137f957fe5b602001015160f81c60f81b60f81c60ff1603600401905061381f89826020856000612db6565b9150606060206040519080825280601f01601f1916602001820160405280156138575781602001600182028038833980820191505090505b5090506022820191506138938a60208c600186038151811061387557fe5b602001015160f81c60f81b60f81c60ff160384016020846000612db6565b905060208301519450602081015193506138b08b601b87876142fd565b80975081985050508573ffffffffffffffffffffffffffffffffffffffff16898051906020012060001c73ffffffffffffffffffffffffffffffffffffffff16141561390657600197505050505050505061395e565b6139138b601c87876142fd565b80975081985050508573ffffffffffffffffffffffffffffffffffffffff16898051906020012060001c73ffffffffffffffffffffffffffffffffffffffff16149750505050505050505b9392505050565b6000806060600285600186018151811061397b57fe5b602001015160f81c60f81b60f81c60ff16016040519080825280601f01601f1916602001820160405280156139bf5781602001600182028038833980820191505090505b5090506139d185858351846000612db6565b506060604080519080825280601f01601f191660200182016040528015613a075781602001600182028038833980820191505090505b509050613a1a8660046040846000612db6565b50606060626040519080825280601f01601f191660200182016040528015613a515781602001600182028038833980820191505090505b509050600160f81b81600081518110613a6657fe5b60200101907effffffffffffffffffffffffffffffffffffffffffffffffffffffffffffff1916908160001a905350613aa787604188036041846001612db6565b5060606040518060400160405280602081526020017ffd94fa71bc0ba10d39d464d0d8f465efeef0a2764e3887fcc9df41ded20f505c8152509050613af28160006020856042612db6565b50613b9b6002836040518082805190602001908083835b60208310613b2c5780518252602082019150602081019050602083039250613b09565b6001836020036101000a038019825116818451168082178552505050505050905001915050602060405180830381855afa158015613b6e573d6000803e3d6000fd5b5050506040513d6020811015613b8357600080fd5b810190808051906020019092919050505085856137a7565b945084613bb057600095505050505050613d77565b6060604051806060016040528060408152602001614964604091399050606060426040519080825280601f01601f191660200182016040528015613c035781602001600182028038833980820191505090505b50905060fe60f81b81600081518110613c1857fe5b60200101907effffffffffffffffffffffffffffffffffffffffffffffffffffffffffffff1916908160001a905350613c578a60036041846001612db6565b50606060028b604581518110613c6957fe5b602001015160f81c60f81b60f81c60ff16016040519080825280601f01601f191660200182016040528015613cad5781602001600182028038833980820191505090505b509050613cc08b60448351846000612db6565b50613d696002836040518082805190602001908083835b60208310613cfa5780518252602082019150602081019050602083039250613cd7565b6001836020036101000a038019825116818451168082178552505050505050905001915050602060405180830381855afa158015613d3c573d6000803e3d6000fd5b5050506040513d6020811015613d5157600080fd5b810190808051906020019092919050505082856137a7565b975087985050505050505050505b92915050565b60008073ffffffffffffffffffffffffffffffffffffffff16600260009054906101000a900473ffffffffffffffffffffffffffffffffffffffff1673ffffffffffffffffffffffffffffffffffffffff161480613e0557506000613e03600260009054906101000a900473ffffffffffffffffffffffffffffffffffffffff1661226d565b145b15613e1657613e146000612278565b505b600260009054906101000a900473ffffffffffffffffffffffffffffffffffffffff1673ffffffffffffffffffffffffffffffffffffffff166338cc48316040518163ffffffff1660e01b8152600401602060405180830381600087803b158015613e8057600080fd5b505af1158015613e94573d6000803e3d6000fd5b505050506040513d6020811015613eaa57600080fd5b810190808051906020019092919050505073ffffffffffffffffffffffffffffffffffffffff16600160009054906101000a900473ffffffffffffffffffffffffffffffffffffffff1673ffffffffffffffffffffffffffffffffffffffff1614613ff557600260009054906101000a900473ffffffffffffffffffffffffffffffffffffffff1673ffffffffffffffffffffffffffffffffffffffff166338cc48316040518163ffffffff1660e01b8152600401602060405180830381600087803b158015613f7957600080fd5b505af1158015613f8d573d6000803e3d6000fd5b505050506040513d6020811015613fa357600080fd5b8101908080519060200190929190505050600160006101000a81548173ffffffffffffffffffffffffffffffffffffffff021916908373ffffffffffffffffffffffffffffffffffffffff1602179055505b6000600160009054906101000a900473ffffffffffffffffffffffffffffffffffffffff1673ffffffffffffffffffffffffffffffffffffffff16632ef3accc86856040518363ffffffff1660e01b81526004018080602001838152602001828103825284818151815260200191508051906020019080838360005b8381101561408c578082015181840152602081019050614071565b50505050905090810190601f1680156140b95780820380516001836020036101000a031916815260200191505b509350505050602060405180830381600087803b1580156140d957600080fd5b505af11580156140ed573d6000803e3d6000fd5b505050506040513d602081101561410357600080fd5b81019080805190602001909291905050509050823a02670de0b6b3a764000001811115614136576000801b9150506142dc565b606061414185614341565b9050600160009054906101000a900473ffffffffffffffffffffffffffffffffffffffff1673ffffffffffffffffffffffffffffffffffffffff1663c55c1cb68360008985896040518663ffffffff1660e01b8152600401808581526020018060200180602001848152602001838103835286818151815260200191508051906020019080838360005b838110156141e65780820151818401526020810190506141cb565b50505050905090810190601f1680156142135780820380516001836020036101000a031916815260200191505b50838103825285818151815260200191508051906020019080838360005b8381101561424c578082015181840152602081019050614231565b50505050905090810190601f1680156142795780820380516001836020036101000a031916815260200191505b5096505050505050506020604051808303818588803b15801561429b57600080fd5b505af11580156142af573d6000803e3d6000fd5b50505050506040513d60208110156142c657600080fd5b8101908080519060200190929190505050925050505b9392505050565b80600390805190602001906142f99291906147f2565b5050565b60008060008060405188815287602082015286604082015285606082015260208160808360006001610bb8f192508051915050818193509350505094509492505050565b606061434b6143c1565b614353614872565b61435f816104006143cd565b61436881614417565b60008090505b83518110156143aa5761439d84828151811061438657fe5b60200260200101518361442590919063ffffffff16565b808060010191505061436e565b506143b48161444a565b8060000151915050919050565b60405180590338823950565b60008190506000602082816143de57fe5b06146143f757602081816143ee57fe5b06602003810190505b808360200181815250506040518084526000815281810160405250505050565b614422816004614458565b50565b6144328260028351614479565b61444581836145b990919063ffffffff16565b505050565b614455816007614458565b50565b614475601f60058360ff16901b178361466490919063ffffffff16565b5050565b601781116144a5576144a08160058460ff16901b60ff16178461466490919063ffffffff16565b6145b4565b60ff81116144e6576144ca601860058460ff16901b178461466490919063ffffffff16565b6144e0816001856146a49092919063ffffffff16565b506145b3565b61ffff81116145285761450c601960058460ff16901b178461466490919063ffffffff16565b614522816002856146a49092919063ffffffff16565b506145b2565b63ffffffff811161456c57614550601a60058460ff16901b178461466490919063ffffffff16565b614566816004856146a49092919063ffffffff16565b506145b1565b67ffffffffffffffff81116145b057614598601b60058460ff16901b178461466490919063ffffffff16565b6145ae816008856146a49092919063ffffffff16565b505b5b5b5b5b505050565b6145c1614872565b826020015183600001515183510111156145f1576145f08360026145ea8660200151865161470b565b02614727565b5b60008060008451905085518051602081830101945086518101825260208701935050505b602081106146385781518352602083019250602082019150602081039050614615565b60006001826020036101000a039050801983511681855116818117865250508694505050505092915050565b8160200151600183600001515101111561468a57614689826002846020015102614727565b5b815180516020818301018381536001820183525050505050565b6146ac614872565b8360200151846000015151830111156146da576146d98460026146d387602001518661470b565b02614727565b5b60006001836101000a0390508451805184818301018684198251161781528582018352505050849150509392505050565b60008183111561471d57829050614721565b8190505b92915050565b60608260000151905061473a83836143cd565b61474483826145b9565b50505050565b6040518060800160405280600073ffffffffffffffffffffffffffffffffffffffff16815260200160008152602001600015158152602001600081525090565b604051806080016040528060008019168152602001600073ffffffffffffffffffffffffffffffffffffffff16815260200160008152602001600081525090565b60405180608001604052806004905b60608152602001906001900390816147da5790505090565b828054600181600116156101000203166002900490600052602060002090601f016020900481019282601f1061483357805160ff1916838001178555614861565b82800160010185558215614861579182015b82811115614860578251825591602001919060010190614845565b5b50905061486e919061488c565b5090565b604051806040016040528060608152602001600081525090565b6148ae91905b808211156148aa576000816000905550600101614892565b5090565b9056fe4d696e696d756d206265742068617320746f2062652061626f766520302e303031204554484e6f7420656e6f7567682062616c616e636520696e2074686520636f6e747261637420746f20737570706f72742074686520626574536166654d6174683a206d756c7469706c69636174696f6e206f766572666c6f77436f6e74726163742062616c616e63652069732024302e30302c207468657265206973206e6f7468696e6720746f2077697468647261777fb956469c5c9b89840d55b43537e66a98dd4811ea0a27224272c2e5622911e8537a2f8e86a46baec82864e98dd01e9ccc2f8bc5dfc9cbe5a91a290498dd96e4596f75722062616c616e63652069732024302e30302c207468657265206973206e6f7468696e6720746f207769746864726177a165627a7a7230582070c648e03fbe214bd77a584aafd1856a9b5bb2e29231df1a43c326460f2efa7a0029",
  "source": "import \"./Ownable.sol\";\r\nimport \"./provableAPI.sol\";\r\nimport { SafeMath } from \"./SafeMath.sol\";\r\n\r\npragma solidity >= 0.5.0 < 0.6.0;\r\n\r\ncontract FlipCoin is Ownable, usingProvable {\r\n\r\n    using SafeMath for uint;\r\n\r\n    uint private minimumBet;\r\n    uint private contractBalance;\r\n    bytes32 queryId;\r\n    uint private constant NUM_RANDOM_BYTES_REQUESTED = 1;\r\n\r\n    struct Bet {\r\n        address player;\r\n        uint amount;\r\n        bool betPlaced;\r\n        uint decision;\r\n    }\r\n    struct Pending {\r\n        bytes32 id;\r\n        address player;\r\n        uint amount;\r\n        uint queryPrice;\r\n    }\r\n\r\n    mapping (address => Bet) private bets;\r\n    mapping (bytes32 => Pending) private pendingBets;\r\n    mapping (address => uint) private playersBalance;\r\n\r\n    constructor () public {\r\n        minimumBet = 1000000000000000;\r\n        provable_setProof(proofType_Ledger);\r\n    }\r\n\r\n    event LogNewProbableQuery(address indexed player, uint indexed amount, uint indexed decision);\r\n    event generatedRandomNumber(uint indexed random_Number);\r\n    event betResult(address indexed player, uint indexed amount, bool indexed result);\r\n    event contractFunded(address indexed owner, uint indexed amount);\r\n    event playerWithdraw(address indexed player, uint indexed amount);\r\n    event contractWithdraw(address indexed owner, uint indexed amount);\r\n    event proofVerificationFail(bytes32 indexed Id);\r\n\r\n\r\n    function createBet (uint _betChoice) public payable {\r\n        require(bets[msg.sender].betPlaced == false, \"Bet already placed\");\r\n        require(msg.value >= minimumBet, \"Minimum bet has to be above 0.001 ETH\");\r\n        require(contractBalance >= msg.value, \"Not enough balance in the contract to support the bet\");\r\n\r\n        Bet memory newBet = Bet(msg.sender, msg.value, true, _betChoice);\r\n        _insertBet(newBet);\r\n\r\n        uint QUERY_EXECUTION_DELAY = 0;\r\n        uint GAS_FOR_CALLBACK = 200000;\r\n        queryId = provable_newRandomDSQuery(QUERY_EXECUTION_DELAY, NUM_RANDOM_BYTES_REQUESTED, GAS_FOR_CALLBACK);\r\n\r\n        Pending memory newPending = Pending(queryId, msg.sender, msg.value, provable_getPrice(\"Random\"));\r\n        _insertPending(newPending, queryId);\r\n\r\n        contractBalance = contractBalance.sub(bets[msg.sender].amount);\r\n        emit LogNewProbableQuery(msg.sender, msg.value, _betChoice);\r\n    }\r\n\r\n    function __callback (bytes32 _queryId, string memory _result, bytes memory _proof) public {\r\n        require(msg.sender == provable_cbAddress());\r\n\r\n        if(provable_randomDS_proofVerify__returnCode(_queryId, _result, _proof) == 0){\r\n            uint randomNumber = uint(keccak256(abi.encodePacked(_result))) % 2;\r\n            assert(randomNumber == 0 || randomNumber == 1);\r\n            emit generatedRandomNumber(randomNumber);\r\n            address _player = pendingBets[_queryId].player;\r\n            uint _amount = pendingBets[_queryId].amount;\r\n            uint _oracleCost = pendingBets[_queryId].queryPrice;\r\n            uint _totalAmount = _amount.mul(2).sub(_oracleCost);\r\n            uint _decision = bets[_player].decision;\r\n            assert(_totalAmount <= _amount.mul(2));\r\n            _checkResult(_player, _totalAmount, randomNumber, _decision);\r\n            delete bets[_player];\r\n            delete pendingBets[_queryId];\r\n        }\r\n        else {\r\n            emit proofVerificationFail(_queryId);\r\n        }\r\n    }\r\n\r\n    function _checkResult (\r\n      address _player,\r\n      uint _totalAmount,\r\n      uint _randomNumber,\r\n      uint _decision) private {\r\n      //whoever wins pays the Oracle fee\r\n      if (_randomNumber == 0 && _decision == 0) {\r\n          playersBalance[_player] = playersBalance[_player].add(_totalAmount);\r\n          emit betResult(_player, _totalAmount, true);\r\n      }\r\n      else if (_randomNumber == 0 && _decision == 1) {\r\n          contractBalance = contractBalance.add(_totalAmount);\r\n          emit betResult(_player, _totalAmount, false);\r\n      }\r\n      else if (_randomNumber == 1 && _decision == 1) {\r\n          playersBalance[_player] = playersBalance[_player].add(_totalAmount);\r\n          emit betResult(_player, _totalAmount, true);\r\n      }\r\n      else {\r\n          contractBalance = contractBalance.add(_totalAmount);\r\n          emit betResult(_player, _totalAmount, false);\r\n      }\r\n    }\r\n\r\n    function _insertBet (Bet memory newBet) private {\r\n        address betCreator = msg.sender;\r\n        bets[betCreator] = newBet;\r\n    }\r\n    function _insertPending (Pending memory newPending, bytes32 _queryId) private {\r\n        pendingBets[_queryId] = newPending;\r\n    }\r\n\r\n    function depositFunds () public payable onlyOwner returns (uint) {\r\n        contractBalance = contractBalance.add(msg.value);\r\n        assert(contractBalance >= msg.value);\r\n        emit contractFunded(msg.sender, msg.value);\r\n        return contractBalance;\r\n    }\r\n\r\n    function getContractBalance () public view returns (uint) {\r\n        return contractBalance;\r\n    }\r\n    function getPlayer () public view returns (address) {\r\n        address playerAddress = msg.sender;\r\n        return playerAddress;\r\n    }\r\n    function getPlayerBalance () public view returns (uint) {\r\n        return playersBalance[msg.sender];\r\n    }\r\n\r\n    function withdrawAllAvailable () public onlyOwner returns (uint) {\r\n        uint amountToWithdraw = contractBalance;\r\n        require(amountToWithdraw > 0, \"Contract balance is $0.00, there is nothing to withdraw\");\r\n        contractBalance = 0;\r\n        assert(contractBalance == 0);\r\n        msg.sender.transfer(amountToWithdraw);\r\n        emit contractWithdraw(msg.sender, amountToWithdraw);\r\n        return contractBalance;\r\n    }\r\n\r\n    function payoutPlayer () public {\r\n        uint amounToPay = playersBalance[msg.sender];\r\n        require(amounToPay > 0, \"Your balance is $0.00, there is nothing to withdraw\");\r\n        playersBalance[msg.sender] = 0;\r\n        assert(playersBalance[msg.sender] == 0);\r\n        msg.sender.transfer(amounToPay);\r\n        emit playerWithdraw(msg.sender, amounToPay);\r\n    }\r\n}\r\n",
  "sourcePath": "C:/Users/urbat/Documents/ethereum-course-advanced/FLIP_COIN_DAPP/contracts/Flip.sol",
  "compiler": {
    "name": "solc",
    "version": "0.5.8+commit.23d335f2.Emscripten.clang"
  },
  "schemaVersion": "3.0.16",
  "updatedAt": "2021-02-25T15:02:27.887Z",
  "devdoc": {
    "methods": {
      "__callback(bytes32,string)": {
        "details": "The following `__callback` functions are just placeholders ideally\r     meant to be defined in child contract when proofs are used.\r     The function bodies simply silence compiler warnings.\r"
      }
    }
  },
  "userdoc": {
    "methods": {}
  }
}