{
  "contractName": "Ownable",
  "abi": [
    {
      "constant": true,
      "inputs": [],
      "name": "owner",
      "outputs": [
        {
          "name": "",
          "type": "address"
        }
      ],
      "payable": false,
      "stateMutability": "view",
      "type": "function"
    },
    {
      "inputs": [],
      "payable": false,
      "stateMutability": "nonpayable",
      "type": "constructor"
    }
  ],
  "bytecode": "0x608060405234801561001057600080fd5b50336000806101000a81548173ffffffffffffffffffffffffffffffffffffffff021916908373ffffffffffffffffffffffffffffffffffffffff16021790555060c68061005f6000396000f3fe6080604052348015600f57600080fd5b506004361060285760003560e01c80638da5cb5b14602d575b600080fd5b60336075565b604051808273ffffffffffffffffffffffffffffffffffffffff1673ffffffffffffffffffffffffffffffffffffffff16815260200191505060405180910390f35b6000809054906101000a900473ffffffffffffffffffffffffffffffffffffffff168156fea165627a7a72305820a6ab7fb1a273ef366ebd5edb8584da73c1cf6bf9e150b46ec1609fa86c84d8930029",
  "source": "pragma solidity >= 0.5.0 < 0.6.0;\r\n\r\ncontract Ownable{\r\n    address public owner;\r\n\r\n    modifier onlyOwner(){\r\n        require(msg.sender == owner);\r\n        _; //Continue execution\r\n    }\r\n\r\n    constructor() public{\r\n        owner = msg.sender;\r\n    }\r\n}\r\n",
  "sourcePath": "C:\\Users\\urbat\\Documents\\ethereum-course-advanced\\FLIP_COIN_DAPP\\contracts\\Ownable.sol",
  "compiler": {
    "name": "solc",
    "version": "0.5.8+commit.23d335f2.Emscripten.clang"
  },
  "schemaVersion": "3.0.16",
  "updatedAt": "2021-02-25T15:00:15.880Z",
  "devdoc": {
    "methods": {}
  },
  "userdoc": {
    "methods": {}
  }
}